:020000040800F2
:1000000050080020D90100083123000815210008FC
:100010002D230008C90900083D2B0008000000003E
:100020000000000000000000000000006F23000836
:10003000CD090008000000006D230008C924000855
:10004000F3010008F3010008F3010008F3010008C0
:10005000F3010008F3010008F3010008F3010008B0
:10006000F3010008F3010008F3010008F3010008A0
:10007000F3010008F3010008F3010008F301000890
:10008000F3010008F3010008F3010008F301000880
:10009000F3010008F3010008F3010008F301000870
:1000A000F3010008F3010008F3010008F301000860
:1000B000F3010008F3010008F3010008F301000850
:1000C000F3010008F3010008F3010008F301000840
:1000D000F3010008F3010008F3010008F301000830
:1000E000F3010008F3010008F3010008F301000820
:1000F000F3010008F3010008F3010008F301000810
:10010000F3010008F3010008F3010008F3010008FF
:10011000F125000801260008F3010008F30100089A
:10012000F3010008F3010008F3010008F3010008DF
:10013000F30100080000000000000000F3010008C7
:10014000F3010008F3010008F3010008F3010008BF
:10015000F3010008F3010008F3010008F3010008AF
:10016000F3010008F3010008F3010008F30100089F
:10017000F3010008F3010008F3010008000000008B
:1001800000000000F3010008000000000000000073
:10019000F30100080000000000000000F301000867
:1001A000000000000000000000000000F301000853
:1001B000F3010008F3010008F3010008F30100084F
:1001C000F3010008DFF80CD000F02CFB00480047DA
:1001D000913600085008002006488047064800472E
:1001E000FEE7FEE7FEE7FEE7FEE7FEE7FEE7FEE7E7
:1001F000FEE7FEE78D250008C50100082DE9F05F48
:100200000546002092469B46884606468146402485
:100210001BE0284641464746224600F030F9534647
:100220005A46C01A914110D311461846224600F092
:1002300017F92D1A67EB01084F46224601200021CD
:1002400000F00EF917EB00094E41201EA4F1010445
:10025000DFDC484631462A464346BDE8F09FD2B22D
:1002600001E000F8012B491EFBD270470022F6E79F
:1002700010B513460A4604461946FFF7F0FF20461C
:1002800010BD421C10F8011B0029FBD1801A7047D9
:10029000034611F8012B00F8012B002AF9D118466A
:1002A000704730B505460020034600E05B1C9342D2
:1002B00005D2EC5CC85C201A01D1002CF6D130BD0F
:1002C0002DE9FE4F81EA030404F0004421F00041CF
:1002D00000944FF0000B23F0004350EA01045ED07D
:1002E00052EA03045BD0C3F30A54C1F30A552C4409
:1002F000A4F2F3340194A0FB0254C1F3130141F4BE
:100300008011C3F3130343F4801301FB024400FB89
:10031000034E840A970A44EA815447EA8357A4FBB0
:10032000076802958D0A05FB07854FEA932C04FBAD
:100330000C542705029D4FEA065847EA1637B5EBDD
:1003400008056EEB070C870E920E47EA811742EA0A
:100350008312A7FB0201B6EB0B0164EB00042B0D2B
:1003600043EA0C335E1844EB1C50DA465146E7FB77
:100370000201C5F313044FEA0B3343EA14534FEA67
:100380000432019C43EA0603A4F10C040294009C8D
:10039000CDE900B400F0C9F803B0BDE8F08F00204B
:1003A0000146F9E700F0004230F000400AD0C10DEC
:1003B00001F56071C0F3160042EA0151C20840071E
:1003C00011437047002001467047000030B5041EFD
:1003D00071F1000404DB4FF00044404264EB010182
:1003E000141E73F1000405DB1C464FF0004352421B
:1003F00063EB0403994208BF904230BD01F0004313
:1004000030B421F0004150EA010206D00A0DA2F5F5
:100410006072C1F31301002A02DC30BC0020704777
:10042000440F44EAC104C100E01830BC00EBC250E4
:1004300000F035B830B50B460146002020220124DB
:1004400009E021FA02F59D4205D303FA02F5491BA2
:1004500004FA02F52844151EA2F10102F1DC30BDB8
:10046000202A04DB203A00FA02F100207047914074
:10047000C2F1200320FA03F3194390407047202A69
:1004800004DB203A21FA02F00021704721FA02F33E
:10049000D040C2F12002914008431946704700291C
:1004A000A8BF7047401C490008BF20F001007047FA
:1004B00010B4B0FA80FC00FA0CF050EA010404BF5A
:1004C00010BC704749B1CCF1200421FA04F411FAB0
:1004D0000CF118BF012121430843A3EB0C01CB1DF4
:1004E0004FEA00614FEA102042BF002010BC704765
:1004F00000EBC35010440029A4BF10BC7047401C3F
:10050000490008BF20F0010010BC704710B5141E50
:1005100073F1000408DA401C41F1000192185B41BC
:100520001A4301D120F0010010BD2DE9F04D924693
:100530009B4611B1B1FA81F202E0B0FA80F22032AA
:100540009046FFF78DFF04460F4640EA0A0041EA55
:100550000B0153465A46084313D0114653EA010093
:1005600019D0C8F140025046FFF789FF05460E46F4
:10057000504659464246FFF773FF084305D0012015
:1005800004E020463946BDE8F08D0020054346EAE8
:10059000E0762C4337430A986305E40AA0EB080091
:1005A0000022FD0A44EA47540A3002D500200146E1
:1005B000E9E7010510196941DDE9084500196941BC
:1005C000BDE8F04DA2E72DE9FE4F804681EA030029
:1005D000C00F0C46009021F0004123F00045B8EB1D
:1005E0000200A94105D24046214690461C460B46D2
:1005F000024623F00040104347D0270DC7F30A00FE
:10060000C3F30A510290401A019040286BDAC3F3F9
:10061000130040F4801B0098924620B10023D2EBD7
:10062000030A63EB0B0B01985946C0F14002504698
:10063000FFF716FF06460D4650465946019A00F050
:1006400003F910EB08006141002487EA115284EAA3
:10065000E7731A4340D0009A62B3019A012A4FEA25
:10066000075215DC001B61EB02014FF0004202EA69
:100670000752CDE90042001C41F5801132462B465D
:10068000FFF753FF03B0BDE8F08F40462146F9E77E
:10069000001B61EB0201001C41F5801300185B4157
:1006A0002018A2F5001747EB030140EAD570B619F0
:1006B0006D4111E06D084FEA360645EAC0754FEA14
:1006C0000752001B61EB0201001C41F58011490833
:1006D0004FEA30000019514132462B4603B0BDE8C5
:1006E000F04FFFF713BF0098012240000023D0EB2A
:1006F000020263EBE073009821464FEAE074B8EB26
:10070000000061EB0401E9E783F000435BE781F05F
:10071000004158E72DE9F04D81EA030404F0004B55
:1007200021F0004514464FF0000A23F0004150EA42
:10073000050220D054EA01021DD0C5F30A57024633
:10074000C5F31303C1F31300C1F30A5640F4801537
:1007500043F48013A7EB0608101BD64608F2FD38B9
:1007600073EB050002D308F1010801E092185B4128
:10077000B8F1000F03DA00200146BDE8F08D00203B
:100780004FF48011064684460EE0171B73EB0507F5
:1007900005D3121B63EB050306434CEA010C490821
:1007A0004FEA300092185B4150EA0107EDD152EA5E
:1007B000030012D082EA040083EA0501084305D051
:1007C000101BAB4106D20122002306E000224FF0AD
:1007D000004302E06FF0010253101AEB06004CEBED
:1007E000085110EB0A0041EB0B01BDE8F04DFFF79B
:1007F0008DBEC1F30A52C1F3130140F2FF3341F43D
:1008000080119A4202DA00200146704740F23343D9
:100810009A42A2F2334202DC5242FFF730BEFFF7A7
:100820001FBE0000064C074D06E0E06840F00103E3
:1008300094E8070098471034AC42F6D3FFF7C6FCA3
:10084000983E0008B83E0008202A06DBCB17203A65
:1008500041FA02F043EAE07306E041FA02F3D040C5
:10086000C2F12002914008431946704754494A6832
:1008700022F440324A604A6843681A434A60026878
:10088000526822F4807203685A60026853680269F1
:1008900043EA022203685A600268526822F04072FA
:1008A00003685A600268526883681A4303685A6092
:1008B0000268926822F4006203689A600268926893
:1008C000C3681A4303689A603E4B826A9A4218D002
:1008D0000268926822F0706203689A600268926807
:1008E000836A1A4303689A600268926822F0405251
:1008F00003689A6002689268C36A1A4303689A6040
:100900000BE00268926822F0706203689A600268E5
:10091000926822F0405203689A600268926822F05E
:10092000020203689A6002689368826943EA42029D
:1009300003689A60026AA2B10268526842F40062D7
:1009400003685A600268526822F4604203685A6081
:1009500002685368426A521E43EA423203685A6090
:1009600005E00268526822F4006203685A60026877
:10097000D26A22F470020368DA620268D36A828B58
:10098000521E43EA02520368DA620268926822F455
:10099000007203689A6002689368026B43EA42221D
:1009A00003689A600268926822F4806203689A6021
:1009B00002689368426943EA822203689A6070473A
:1009C000002301400100000F00BFFEE77047000058
:1009D00010B50446012C06D0022C0FD0032C18D0E1
:1009E000042C2CD120E000224021164800F0A8FB66
:1009F00000220121144800F0A3FB21E00122402144
:100A0000104800F09DFB002201210F4800F098FBE8
:100A100016E0002240210B4800F092FB0122114613
:100A2000094800F08DFB0BE001224021054800F051
:100A300087FB01221146044800F082FB00E000BF62
:100A400000BF10BD000002400004024070470000DB
:100A50007FB50446002500940120019007200290F4
:100A6000002003906946114800F022F808B1FFF712
:100A7000EDFF0E4800F0C0F908B1FFF7E7FF0A21CB
:100A80000A4800F05BF908B1FFF7E0FF074800F003
:100A9000D9F800F40070B0F5007F03D1034800F0EE
:100AA000D4F80546284604B070BD00008801002037
:100AB00038B502460020009000BF92F83C000128A3
:100AC00001D1022038BD012082F83C0000BF086837
:100AD000092816D91068C0680C780A3C04EB440554
:100AE0000724AC40A0431468E0600C780A3C04EB97
:100AF00044048868A0401468E46820431468E060F7
:100B000013E0106800690C7804EB44050724AC403E
:100B1000A043146820610C7804EB44048868A0406A
:100B2000146824692043146820614868072817D294
:100B30001068406B0C79641E04EB84051F24AC40E4
:100B4000A04314686063088880B20C79641E04EBCB
:100B50008404A0401468646B20431468606331E02F
:100B600048680D2817D21068006B0C79E41F04EB5D
:100B700084051F24AC40A04314682063088880B219
:100B80000C79E41F04EB8404A0401468246B204318
:100B90001468206316E01068C06A0C790D3C04EB01
:100BA00084051F24AC40A0431468E062088880B22A
:100BB0000C790D3C04EB8404A0401468E46A2043E3
:100BC0001468E0621A4B1B4C1068A04206D10868FA
:100BD000122803D1586840F480005860154C106802
:100BE000A0421ED1144C0868A04202D00868112807
:100BF00017D1586840F4000058600F4C0868A042B4
:100C00000FD10E4800680E4CB0FBF4F000EB8000F2
:100C10004000009002E00098401E009000980028DC
:100C2000F9D100BF002082F83C0000BF00BF49E7B7
:100C30000023014000200140120000101800002095
:100C400040420F000146086C704701460868C06CBE
:100C50007047000070B5044600250CB9012070BD36
:100C60001549A06A884200D000BF206C30B900202E
:100C7000606484F83C00204600F020F8206C00F00E
:100C8000100088B9206C20F4885040F002002064E5
:100C90002046FFF7EBFD00206064206C20F002008E
:100CA00040F00100206400E0012500BF002084F82E
:100CB0003C0000BF2846D2E70100000F10B586B007
:100CC0000446142101A8FFF7D1FA19492068884287
:100CD0002BD100BF002000901648006840F400703F
:100CE000144908600846006800F40070009000BFD6
:100CF00000BF00BF002000900E481438006840F08C
:100D000001000C49143908600846006800F0010031
:100D1000009000BF00BF302001900320029000200F
:100D2000039001A9044800F00FF906B010BD0000BF
:100D300000210140443802400000024070B50446E2
:100D40000D4600262068806800F4806078B1206835
:100D5000806800F4807050B1206C40F02000206466
:100D600000BF002084F83C0000BF012070BD00F0EF
:100D7000EDF9064612E0681C80B125B100F0E6F9F5
:100D8000801BA8420AD9206C40F00400206400BFF8
:100D9000002084F83C0000BF0320E7E720680068DB
:100DA00000F002000228E6D16FF01200216808600E
:100DB000206C40F4007020642068806800F040508F
:100DC000B8B9A069A8B92068C06A00F4700020B161
:100DD0002068806800F4806058B9206C20F480702E
:100DE0002064206C00F4805018B9206C40F00100A1
:100DF00020640020BAE7000008B5014600200090FA
:100E000000BF91F83C00012801D1022008BD01205B
:100E100081F83C0000BF0868806800F00100A0B9BC
:100E20000868806840F001000B6898602E480068F0
:100E30002E4BB0FBF3F000EB4000009002E0009876
:100E4000401E009000980028F9D10868806800F0E2
:100E50000100002845D0086C40F20163984340F43B
:100E6000807008640868406800F4806028B1086CED
:100E700020F4005040F480500864086C00F4805066
:100E800020B1486C20F00600486401E0002048646E
:100E900000BF002081F83C0000BF154A6FF022001F
:100EA0000B681860506800F01F0058B90868806827
:100EB00000F04050A8B90868806840F080400B6896
:100EC00098600EE00B4B086898420AD10868806869
:100ED00000F0405028B90868806840F080400B68F6
:100EE0009860002092E700001800002040420F00A8
:100EF0000023014000200140014691F835000228FE
:100F000003D08020486501207047052081F8350016
:100F10000868006820F001000A6810600020F3E70C
:100F200070B5044600F012F906462546681C10B15B
:100F300004480078054400BF00F008F9801BA8426F
:100F4000FAD370BD14000020F8B502460B46002508
:100F5000002400200021D7E0012606FA01F51E68D2
:100F600006EA0504AC4273D15E68022E02D05E68C8
:100F7000122E13D1CF0802F1200656F827004E0793
:100F8000F70E0F26BE40B0434F07FF0E1E69BE404E
:100F90003043CF0802F1200646F8270010684F00C2
:100FA0000326BE40B0431E7906F003064F00BE4044
:100FB000304310605E68012E08D05E68022E05D0B6
:100FC0005E68112E02D05E68122E13D190684F0019
:100FD0000326BE40B0434F00DE68BE403043906001
:100FE000506801268E40B0431E79C6F300168E402D
:100FF00030435060D0684F000326BE40B0434F00DE
:101000009E68BE403043D0605E6806F08056B6F100
:10101000805F78D100BF002600963D4E366846F4CA
:1010200080463B4F3E603E46366806F4804600965A
:1010300000BF00BF374E8F0856F827008E07370FC6
:101040000F26BE40B043344EB24202D100261FE00C
:1010500059E0324EB24201D1012619E0304EB2427F
:1010600001D1022614E02F4EB24201D103260FE037
:101070002D4EB24201D104260AE02C4EB24201D1DB
:10108000052605E02A4EB24201D1062600E00726D9
:101090008F073F0FBE4030431E4E8F0846F8270093
:1010A000244E3068A0435E6806F48036B6F5803F73
:1010B00000D120431F4E3060361D3068A0435E686B
:1010C00006F40036B6F5003F00D12043194E361D18
:1010D0003060361D3068A0435E6806F48016B6F5B1
:1010E000801F00D12043134E08363060361D306813
:1010F000A0435E6806F40016B6F5001F00D1204339
:101100000C4E0C363060491C1029FFF425AFF8BD99
:101110004438024008380140000002400004024008
:1011200000080240000C024000100240001402407F
:1011300000180240003C014042694A404261704749
:101140000AB1816101E00B048361704701480068C6
:10115000704700000C00002003480068034909782C
:1011600008440149086070470C000020140000206A
:1011700010B50D48006840F400700B49086008463F
:10118000006840F4806008600846006840F48070A1
:101190000860032000F0A0F8002000F007F800F03D
:1011A0002BF8002010BD0000003C024070B5044642
:1011B0000E4800784FF47A71B1FBF0F00C490968E1
:1011C000B1FBF0F5284600F093FC08B1012070BD9A
:1011D000102C07D200222146501E00F03EF8054890
:1011E000046001E00120F2E70020F0E71400002095
:1011F000180000201000002008B500BF002000905B
:101200000E48006840F480400C49086008460068B9
:1012100000F48040009000BF00BF00BF002000909D
:10122000081F006840F08050091F086008460068E9
:1012300000F08050009000BF00BF08BD443802405D
:1012400000BF00F01F02012191404209920002F10B
:10125000E022C2F8001100BF70472DE9F05F804620
:101260000D461646002701F065F8074639462A461E
:10127000334601F00700C0F1070ABAF1040F02D9A2
:101280004FF0040A01E0C0F1070AD14600F1040A58
:10129000BAF1070F02D24FF0000A01E0A0F1030AF1
:1012A000D4464FF0010A0AFA09FAAAF1010A0AEA39
:1012B000020A0AFA0CFA4FF0010B0BFA0CFBABF125
:1012C000010B0BEA030B4AEA0B042146404601F0EE
:1012D00039F8BDE8F09F000000BF00F00702064BA0
:1012E00019684FF6FF031940044B0B4343EA0221F0
:1012F000014B196000BF70470CED00E00000FA05DB
:1013000038B5002400BF002000901D48006840F060
:1013100080501B4908600846006800F0805000902B
:1013200000BF00BF012017490864FFF70FFF044604
:1013300007E0FFF70BFF001BB0F57A7F01D9032010
:1013400038BD1148406800F48030B0F5803FF0D1DE
:1013500001200C494864FFF7F9FE044607E0FFF757
:10136000F5FE001BB0F57A7F01D90320E8E70648B7
:10137000406800F40030B0F5003FF0D10020DFE716
:101380004038024000000E420070004070B5044634
:101390000D460CB9012070BD5848006800F00F00E0
:1013A000A84209D255490D700846006800F00F00A8
:1013B000A84201D00120EEE7207800F002000228C8
:1013C0001DD1207800F00400042805D14C480068A5
:1013D00040F4E0504A490860207800F008000828EE
:1013E00005D14748006840F46040454908604448DA
:1013F000006820F0F000A1680843414908602078A7
:1014000000F00100A8B36068012807D13C48083803
:101410000068C0F34040B8B90120BCE7606802280A
:1014200002D06068032807D1354808380068C0F347
:10143000406048B90120AEE7314808380068C0F381
:10144000400008B90120A6E72D48006820F00300FD
:10145000616808432A490860FFF778FE064609E0FC
:10146000FFF774FE801B41F28831884202D90320C5
:1014700091E707E02248006800F00C006168B0EBDB
:10148000810FEDD11D48006800F00F00A84209D976
:101490001A490D700846006800F00F00A84201D0FC
:1014A000012078E7207800F00400042807D11448D0
:1014B000006820F4E050E168084311490860207892
:1014C00000F00800082808D10D48006820F46040AA
:1014D000216940EAC1000A49086000F03DF8084966
:1014E0000968C1F30311074A515CC8400649086006
:1014F0000020FFF75BFE00204DE70000003C0240AB
:1015000008380240143E0008180000200148006816
:10151000704700001800002000B5FFF7F7FF0449EE
:101520000968C1F38221034A515CC84000BD000034
:1015300008380240243E000800B5FFF7E7FF0449E1
:101540000968C1F34231034A515CC84000BD000044
:1015500008380240243E00082DE9F0470024002509
:101560000026A146A2463F48006800F00C0030B1BA
:10157000042807D0082808D00C286BD138E0DFF801
:10158000E8A06AE0DFF8E4A067E03648001F0068E2
:1015900000F03F043348001F006800F4800078B179
:1015A00032483049091F0968C1F38811A0FB017056
:1015B0000146224600233846FEF720FE05460DE090
:1015C00029482849091F0968C1F38811A0FB017146
:1015D000224600233846FEF711FE05462148001F2B
:1015E0000068C0F30140401C4600B5FBF6FA34E049
:1015F0001C48001F006800F03F041A48001F0068E4
:1016000000F4800078B119481649091F0968C1F330
:101610008811A0FB01700146224600233846FEF7E0
:10162000EDFD05460EE010480E49091F0968C1F39B
:101630008811A0FB01700146224600233846FEF7C0
:10164000DDFD05460748001F0068C0F30279B5FBC1
:10165000F9FA02E0DFF810A000BF00BF5046BDE875
:10166000F0870000083802400024F40000127A00DD
:10167000F8B504460025207800F0010000286FD05E
:10168000FD48006800F00C0004281BD0FA480068F0
:1016900000F00C00082807D1F748001F006800F48C
:1016A0008000B0F5800F0DD0F348006800F00C000A
:1016B0000C2813D1F048001F006800F48000B0F53A
:1016C000800F0BD1EC4808380068C0F34040002878
:1016D00059D06068002856D10120F8BD00BF60686D
:1016E000B0F5803F08D1E4480838006840F4803005
:1016F000E149083908601EE06068B0F5A02F0DD1FF
:10170000DD480838006840F48020DB49083908606B
:101710000846006840F4803008600CE0D64808387D
:10172000006820F48030D449083908600846006811
:1017300020F48020086000BF606890B1FFF706FDCC
:10174000054606E0FFF702FD401B642801D903208F
:10175000C3E7C94808380068C0F340400028F1D00A
:1017600011E0FFF7F3FC054606E0FFF7EFFC401B36
:10177000642801D90320B0E7BF4808380068C0F3E7
:1017800040400028F1D1207800F0020002286BD1FF
:10179000B948006800F00C00B8B1B748006800F024
:1017A0000C00082805D1B448001F006800F4800030
:1017B00058B1B148006800F00C000C281CD1AE48AC
:1017C000001F006800F48000B0B9AB48083800681A
:1017D000C0F3400020B1E068012801D001207CE77F
:1017E000A5480838006820F0F800216940EAC100E7
:1017F000A1490839086037E0E06800B301209F493B
:101800000860FFF7A3FC054606E0FFF79FFC401BBE
:10181000022801D9032060E7974808380068C0F320
:1018200040000028F1D094480838006820F0F80003
:10183000216940EAC10090490839086014E000209D
:101840008E490860FFF782FC054606E0FFF77EFC44
:10185000401B022801D903203FE787480838006869
:10186000C0F340000028F1D1207800F008000828DB
:101870002CD16069A8B1012081490860FFF766FC9E
:10188000054606E0FFF762FC401B022801D9032051
:1018900023E779486C300068C0F340000028F1D09D
:1018A00014E0002076490860FFF750FC054606E08A
:1018B000FFF74CFC401B022801D903200DE76E48BE
:1018C0006C300068C0F340000028F1D1207800F0AF
:1018D0000400042870D1002667483830006800F002
:1018E000805090B900BF00200090634838300068F5
:1018F00040F080506049383108600846006800F0C8
:101900008050009000BF00BF01265E48006800F4D0
:101910008070B0B95B48006840F480705949086035
:10192000FFF714FC054606E0FFF710FC401B0228F9
:1019300001D90320D1E65348006800F480700028E4
:10194000F2D000BFA068012808D14B486830006879
:1019500040F001004849683108601DE0A068052892
:101960000DD145486830006840F0040042496831B4
:1019700008600846006840F0010008600CE03E483E
:101980006830006820F001003B4968310860084673
:10199000006820F00400086000BFA068A8B1FFF74D
:1019A000D5FB054609E0FFF7D1FB401B41F288312A
:1019B000884202D9032090E626E02F48683000686C
:1019C000C0F340000028EED013E0FFF7BFFB054650
:1019D00008E0FFF7BBFB401B41F28831884201D988
:1019E00003207AE6244868300068C0F340000028ED
:1019F000EFD1012E07D120483830006820F0805008
:101A00001D493831086000BFA069E8B31A48006872
:101A100000F00C00082862D0A06902284AD10020FA
:101A200016490866FFF792FB054606E0FFF78EFBB6
:101A3000401B022801D903204FE60F4808380068F0
:101A4000C0F340600028F1D1D4E907010843616A7E
:101A500040EA81110122A06AC2EB500041EA004134
:101A60002C20005D41EA00613020005D41EA0070F9
:101A70000149091F086008E0083802400000474299
:101A8000800E4742007000402BE001201649086696
:101A9000FFF75CFB054606E0FFF758FB401B0228FA
:101AA00001D9032019E611480068C0F340600028FE
:101AB000F2D016E000200C490866FFF747FB054608
:101AC00006E0FFF743FB401B022801D9032004E690
:101AD00006480068C0F340600028F2D101E0012010
:101AE000FBE50020F9E50000000047420038024015
:101AF00070B504462546681EB0F1807F01D30120F1
:101B00000FE0681E4FF0E02148610F214FF0FF30D9
:101B100000F018FC00204FF0E021886107200861E8
:101B2000002070BD704701460022002391F8392043
:101B300091F83A3042EA0300704700002DE9F0477F
:101B40000446206805682068C668206847694FF029
:101B50000008C14605F00F08B8F1000F0AD105F0E2
:101B6000200038B106F0200020B1204600F07AFDB8
:101B7000BDE8F087B8F1000F6DD007F0010018B98B
:101B800006F49070002866D005F0010030B106F42C
:101B9000807018B1E06B40F00100E06305F00400D4
:101BA00030B107F0010018B1E06B40F00200E063D3
:101BB00005F0020030B107F0010018B1E06B40F011
:101BC0000400E06305F0080030B107F0010018B12F
:101BD000E06B40F00800E063E06B68B305F02000C4
:101BE00028B106F0200010B1204600F03BFD20682F
:101BF0004069C0F38019E06B00F0080010B9B9F13A
:101C0000000F22D0204600F00DFD2068406900F052
:101C10004000B0B12068406920F040002168486170
:101C2000606B50B11748616B0865606BFFF764F932
:101C300010B1606B016D88470CE02046FFF772FF22
:101C400008E02046FFF76EFF04E02046FFF76AFF3A
:101C50000020E0638CE705F0800030B106F08000E2
:101C600018B1204600F000FF82E705F0400030B1D7
:101C700006F0400018B1204600F0E4FC78E700BF11
:101C800076E700001126000810B504460CB90120C3
:101C900010BDA06900B100E000BF94F8390028B978
:101CA000002084F83800204600F028F8242084F82A
:101CB00039002068C06820F400502168C8602046C0
:101CC00000F01EFD2068006920F490402168086142
:101CD0002068406920F02A00216848612068C068B7
:101CE00040F400502168C8600020E063202084F8A0
:101CF000390084F83A000020CAE7000010B586B029
:101D00000446142101A8FEF7B1FA5249206888421E
:101D100055D100BF002000904F48006840F480106B
:101D20004D4908600846006800F48010009000BF2C
:101D300000BF00BF0020009047481038006840F006
:101D400004004549103908600846006800F00400A6
:101D5000009000BF00BF00BF002000900846006850
:101D600040F0080008600846006800F00800009095
:101D700000BF00BF88140190022002900120039050
:101D8000032004900820059001A93448FFF7DCF8EF
:101D9000042001900220029001200390032004906F
:101DA0000820059001A92E48FFF7CEF80022114621
:101DB0003520FFF752FA3520FFF742FA48E029496B
:101DC0002068884244D100BF00200090224800686B
:101DD00040F40020204908600846006800F4002014
:101DE000009000BF00BF00BF002000901A481038CC
:101DF000006840F001001849103908600846006882
:101E000000F00100009000BF00BF012001900220FF
:101E1000029001200390032004900820059001A95E
:101E20001148FFF791F802200190029001200390E1
:101E3000032004900820059001A90B48FFF784F8BF
:101E4000002211463420FFF708FA3420FFF7F8F992
:101E500006B010BD0050004040380240000802406B
:101E6000000C0240004C00400000024010B5034648
:101E700093F83A00202829D101B10AB9012010BDF8
:101E800000BF93F83800012801D10220F7E70120B4
:101E900083F8380000BF99629A85DA850020D863FC
:101EA000222083F83A0000BF002083F8380000BFEA
:101EB0001868406940F001001C6860611868C068DB
:101EC00040F490701C68E0600020D8E70220D6E75C
:101ED00070B5044600254D492068884265D14C48BC
:101EE00000780D285BD04A480078242857D048480D
:101EF0000078002853D0464800785B2852D04448E8
:101F0000007808280FD1002142480078401EC0B256
:101F1000404A1070404A11540423022220213F48B5
:101F200000F08CF83EE03A4800781B2809D1394887
:101F30000078002805DD37480078401E35490870D4
:101F400030E0334800781A2809D132480078322826
:101F500005DA30480078401C2E49087022E02C48F1
:101F60000078612810DB2A4800787A280CDC2848A1
:101F700000782038C1B2274802780078401C254BF1
:101F80001870254881540DE02148017821480278D5
:101F90000078401C1F4B18701F48815402E001203C
:101FA0001F49087001F09AFA2EE01E492068884205
:101FB0002AD11D48007840B9002504E000201B49C3
:101FC0004855681CC5B2642DF8DD194800780D2805
:101FD0000AD017480178144802780078401C124B48
:101FE00018701248815405E000200F490870012044
:101FF000104908701048FFF796FD202804D10122EF
:102000000B490D48FFF732FF70BD00000050004043
:1020100005000020060000204A01002010020020D8
:1020200004000020004C0040080000207C0100203B
:10203000070000201C000020D00100202DE9F843FB
:1020400004460D4616461F464FF0000994F8390025
:1020500020285CD105B116B90120BDE8F88300BF86
:1020600094F83800012801D10220F6E7012084F815
:10207000380000BF0020E063212084F83900FFF71A
:1020800065F88146A684E6842BE0E08C401EE0845F
:10209000A068B0F5805F16D14B4600228021204613
:1020A000009700F015FD08B10320D6E7A846B8F860
:1020B0000000C0F3080021684860206908B9AD1C21
:1020C0000FE06D1C0DE04B4600228021204600975A
:1020D00000F0FEFC08B10320BFE715F8010B2168F2
:1020E0004860E08C0028D0D14B4600224021204699
:1020F000009700F0EDFC08B10320AEE7202084F843
:10210000390000BF002084F8380000BFA5E7022096
:10211000A3E7704700BFFEE71FB5002000900190C5
:10212000029003901448154908604FF480304860CD
:10213000002112488160016181610162C162104920
:1021400081620021C1600121C1610021016301217F
:102150004161FEF77FFD08B1FEF778FC0420009096
:10216000012001900020029069460448FEF7A0FC7F
:1021700008B1FEF76BFC1FBD002101408801002063
:102180000100000F00B587B0142102A8FEF76EF819
:1021900000BF002001904548006840F0040043491A
:1021A00008600846006800F00400019000BF00BF0E
:1021B00000BF002001900846006840F080000860E1
:1021C0000846006800F08000019000BF00BF00BF1B
:1021D000002001900846006840F0010008600846B1
:1021E000006800F00100019000BF00BF00BF0020A8
:1021F00001900846006840F0020008600846006848
:1022000000F00200019000BF00BF00BF002001905D
:102210000846006840F0080008600846006800F0C2
:102220000800019000BF00BF00224FF488612048E1
:10223000FEF786FF00224FF4D2611E48FEF780FFB2
:1022400000224FF2C2711C48FEF77AFF4FF2A160E4
:1022500002900120039000200490059002A91648E6
:10226000FEF772FE40F243400290012003900020EE
:102270000490059002A90E48FEF766FE4FF43070F8
:1022800002900120039000200490059002A90948C3
:10229000FEF75AFE302002900320039000200490A5
:1022A00002A90448FEF750FE07B000BD30380240D6
:1022B00000080240000002400004024010B50B4834
:1022C0000B4908604FF4E130486000210848816004
:1022D000C16001610C21416100218161C161FFF791
:1022E000D3FC08B1FEF7B2FB10BD0000004C00406B
:1022F000D001002010B50B480B4908604FF4E130C5
:102300004860002108488160C16001610C21416181
:1023100000218161C161FFF7B7FC08B1FEF796FBB0
:1023200010BD0000005000401002002000BFFEE77A
:102330007047000002480068C0F3022070470000A8
:102340000CED00E010B5002807DA0A07140E054A64
:1023500000F00F031B1FD45403E00A07130E024AB8
:10236000135410BD18ED00E000E400E07047704722
:1023700070B505460C46012D22D1012C06D0022C49
:102380000AD0032C0ED0042C18D111E00122D10365
:102390002048FEF7D5FE12E0012291031D48FEF70A
:1023A000CFFE0CE0012240211B48FEF7C9FE06E0EB
:1023B000012251021948FEF7C3FE00E000BF27E0EA
:1023C000022D25D1012C06D0022C0BD0032C10D0CD
:1023D000042C1BD113E000224FF400410D48FEF7FE
:1023E000AFFE14E000224FF480410A48FEF7A8FE39
:1023F0000DE0002240210848FEF7A2FE07E000227F
:102400004FF400710548FEF79BFE00E000BF00BFDF
:1024100070BD0000000402400008024000000240BD
:1024200070B505460C46012D22D1012C06D0022C98
:102430000AD0032C0ED0042C18D111E001229102F5
:102440001F48FEF77DFE12E0012220211D48FEF705
:1024500077FE0CE0012280211A48FEF771FE06E0AB
:10246000012251021748FEF76BFE00E000BF26E094
:10247000022D24D1012C06D0022C0BD0032C0FD01E
:10248000042C1AD112E000224FF480610C48FEF7B0
:1024900057FE13E0002220210A48FEF751FE0DE00E
:1024A000002280210748FEF74BFE07E000224FF490
:1024B00000710448FEF744FE00E000BF00BF70BD9D
:1024C000000802400004024010B5FEF745FE10BDB2
:1024D00000B593B0342106A8FDF7C8FE142101A869
:1024E000FDF7C4FE00BF002000902648006840F0C1
:1024F0008050244908600846006800F08050009031
:1025000000BF00BF00BF002000901F48006840F4DB
:1025100040401D4908600846006800F440400090B3
:1025200000BF00BF012006900004079002200C901D
:1025300041050D9104210E91B4210F9102211091BA
:102540001191129106A8FFF793F808B1FEF77EFAF1
:10255000FEF7D6FE08B1FEF779FA0F2001900220AF
:102560000290002003904FF4A05004904FF480504C
:102570000590052101A8FEF709FF08B1FEF766FAEC
:1025800013B000BD4038024000700040144800689D
:1025900040F47000124908601248006840F00100E1
:1025A0001049086000200F49083108600D48006894
:1025B0000D4908400B4908600C48091D0860081FB8
:1025C000006820F48020091F0860002005490C31B4
:1025D00008604FF0006002498039086070470000D1
:1025E00088ED00E000380240FFFFF6FE10300024C6
:1025F00010B50248FFF7A2FA10BD0000D00100207C
:1026000010B50248FFF79AFA10BD00001002002032
:1026100070B50546AC6B0020E085E0842046FFF7EE
:1026200081FA70BD0168C96821F490710268D160B7
:102630000168496921F0010102685161202180F897
:102640003A10704710B504462068C06820F040007A
:102650002168C860202084F839002046FFF759FD22
:10266000002010BD70B5044694F83A00222844D1E9
:10267000A068B0F5805F13D1A56A206940B92068D1
:102680004068C0F308002880A06A801CA06219E09E
:1026900020684068C0B22880A06A401CA06211E097
:1026A000206938B920684068C1B2A26A501CA06293
:1026B000117007E02068406800F07F01A26A501C9A
:1026C000A0621170E08D401E80B2E08598B920684C
:1026D000C06820F490702168C8602068406920F0CC
:1026E000010021684861202084F83A002046FFF765
:1026F000EFFB002070BD0020FCE70220FAE700009D
:102700002DE9F041044600252068056925F440556F
:10271000E0680543206805612068C56849F20C60DF
:1027200085432169A068084361690843E16908435A
:1027300005432068C5602068456925F44075A06997
:10274000054320684561E069B0F5004F7ED1C4497A
:102750002068884203D0C349206888425DD1FEF7D3
:10276000EBFE00EBC00101EB001061684900B0FB1B
:10277000F1F06421B0FBF1F00601FEF7DDFE00EBA5
:10278000C00101EB001061684900B0FBF1F7FEF7F2
:10279000D3FE00EBC00101EB001061684900B0FB03
:1027A000F1F06421B0FBF1F000EBC00101EB00108F
:1027B000A7EB8000322101EBC0006421B0FBF1F0F7
:1027C00000F0F80006EB4006FEF7B6FE00EBC00195
:1027D00001EB001061684900B0FBF1F7FEF7ACFEB9
:1027E00000EBC00101EB001061684900B0FBF1F0A3
:1027F0006421B0FBF1F000EBC00101EB0010A7EB8E
:102800008000322101EBC0006421B0FBF1F000F048
:10281000070030442168886020E1FEF77DFE00EB70
:10282000C00101EB001061684900B0FBF1F06421C8
:10283000B0FBF1F00601FEF76FFE00EBC00101EB0B
:10284000001061684900B0FBF1F700E045E0FEF7D9
:1028500063FE00EBC00101EB001061684900B0FBB2
:10286000F1F06421B0FBF1F000EBC00101EB0010CE
:10287000A7EB8000322101EBC0006421B0FBF1F036
:1028800000F0F80006EB4006FEF746FE00EBC00144
:1028900001EB001061684900B0FBF1F7FEF73CFE68
:1028A00000EBC00101EB001061684900B0FBF1F0E2
:1028B0006421B0FBF1F000EBC00101EB0010A7EBCD
:1028C0008000322101EBC0006421B0FBF1F000F088
:1028D0000700304421688860C0E061492068884270
:1028E00003D06049206888425CD1FEF725FE00EBEA
:1028F000C00101EB001061688900B0FBF1F6FEF742
:102900001BFE00EBC00101EB001061688900B0FB09
:10291000F1F06421B0FBF1F000EBC00101EB00101D
:10292000A6EB8000322101EB00106421B0FBF1F036
:1029300000F0F006FEF700FE00EBC00101EB001016
:1029400061688900B0FBF1F06421B0FBF1F006EBA7
:102950000016FEF7F1FD00EBC00101EB001061680D
:102960008900B0FBF1F7FEF7E7FD00EBC00101EBDA
:10297000001061688900B0FBF1F06421B0FBF1F058
:1029800000EBC00101EB0010A7EB8000322101EB4E
:1029900000106421B0FBF1F000F00F00304421681A
:1029A00088605BE0FEF7B8FD00EBC00101EB0010B2
:1029B00061688900B0FBF1F6FEF7AEFD00EBC001E7
:1029C00001EB001061688900B0FBF1F06421B0FBFD
:1029D000F1F000EBC00101EB0010A6EB800032210A
:1029E00001EB00106421B0FBF1F000F0F006FEF7FF
:1029F00093FD00EBC00101EB001061688900B0FBA2
:102A0000F1F06421B0FBF1F006EB0016FEF784FD57
:102A100000EBC00101EB001061688900B0FBF1F729
:102A2000FEF77AFD00EBC00101EB00106168890040
:102A3000B0FBF1F06421B0FBF1F000EBC00101EB61
:102A40000010A7EB8000322101EB00106421B0FBE5
:102A5000F1F000F00F00304421688860BDE8F0819B
:102A60000010014000140140014691F8390021286E
:102A70002CD18868B0F5805F0FD10A6A1088C0F346
:102A800008000B685860086918B9086A801C086259
:102A900009E0086A401C086205E00B6A581C0862DD
:102AA00018780B685860C88C401E80B2C88458B92A
:102AB0000868C06820F080000B68D8600868C068AB
:102AC00040F040000B68D860002070470220FCE70F
:102AD0002DE9F04104460D4617469846069E21E032
:102AE000701CF8B12EB1FEF731FBA0EB0800B0422C
:102AF00018D92068C06820F4D0702168C8602068A8
:102B0000406920F0010021684861202084F83900E4
:102B100084F83A0000BF002084F8380000BF03208A
:102B2000BDE8F081206800682840A84201D101205A
:102B300000E00020B842D3D00020F1E700BFFEE75C
:102B40000FB4084B10B504A902AA039800F0DEF8F0
:102B5000044602A9002000F070FC204610BC5DF87D
:102B600014FB00003B34000802E008C8121F08C133
:102B7000002AFAD170477047002001E001C1121FFE
:102B8000002AFBD1704700002DE9FF5F82B00021D1
:102B9000DDE90430020DDDF840B0034318D044F6FF
:102BA0001050A2F2FF3242431514119801281FD091
:102BB000A5EB0B00401C5FEA000A4FF000064E4FE9
:102BC000DFF83891B046504615D5CAF1000413E03D
:102BD000119801244AA3012801D16FEA0B01029840
:102BE000119AC0E90031C0E9024206B0BDE8F09F89
:102BF000CBF10000DFE704460021404A491842EBD0
:102C00000450CDE9001012E0E00707D032463B4601
:102C100040464946FDF754FB8046894632463B46CE
:102C200010461946FDF74CFB06460F466410002C73
:102C3000EAD1DDE90401DDE90023BAF1000F06DA8B
:102C4000FDF73EFB42464B46FDF73AFB05E0FDF73C
:102C500061FD42464B46FDF75DFD04460E460022EF
:102C6000284BFDF7B3FB03D84FF0FF30014607E0D8
:102C70000022254B20463146FDF7A5FCFDF7B9FDA6
:102C8000102409E0002C0ADB0A220023FDF7B6FA23
:102C9000039B30321A55641E50EA0102F2D1641CC3
:102CA000039AC4F111031444119A012A03D001229A
:102CB00008430DD10AE0084304D000204FF0110B67
:102CC000119072E7A3EB0B056D1E0DE05B4504DD73
:102CD0004FF0000205F1010504E003DA4FF00002B5
:102CE000A5F10105002AECD002981199C0E9023142
:102CF000C0E9004579E70000000014400000F03F03
:102D0000300000000000F0430000E03F2DE9FF4FDD
:102D100095B09B468946064600250FE2252877D1C7
:102D200000242746F84A0121059400E0044316F8E0
:102D3000013F203B01FA03F01042F7D130782A28F6
:102D400011D06FF02F033078A0F13002092A16D885
:102D5000059A44F0020402EB820203EB42021044A3
:102D6000761C0590EFE759F8042B0592002A03DA48
:102D7000504244F40054059044F00204761C30782C
:102D80002E2816D116F8010F44F004042A280DD07D
:102D90006FF02F023078A0F13003092B09D807EB30
:102DA000870302EB4303C718761CF3E759F8047B4B
:102DB000761C30786C280FD006DC4C2817D0682899
:102DC0000DD06A2814D104E0742810D07A280FD1CD
:102DD0000DE044F400140AE044F4801401E044F4EB
:102DE00040147278824202D104F58014761C761C5D
:102DF000307866280BD013DC582877D009DC0028FF
:102E000075D04528F6D04628F4D047281AD19DE140
:102E100018E0632835D0642879D0652812D195E16F
:102E2000702873D008DC6728F1D069286FD06E282D
:102E30000DD06F2806D1B5E073282CD0752875D039
:102E4000782874D05A46179990476D1C75E1C4F3E1
:102E50000250022809D003280DD0D9F80010042808
:102E60000DD00D6009F1040967E1D9F80010EA17E7
:102E7000C1E90052F6E7D9F800100D80F2E70D70B5
:102E8000F0E719F8041B8DF8001000208DF8010000
:102E9000EA46012003E059F804AB4FF0FF30610728
:102EA0004FF0000102D40DE008F101018846B9425B
:102EB0000FDA8045F8DB1AF808100029F4D108E091
:102EC00008F1010188468142FADB1AF8081000294E
:102ED000F6D105985B46A0EB080721463846179ABD
:102EE00000F094FA284400EB080507E04DE029E1E2
:102EF0000DE01AF8010B5A4617999047B8F10108EE
:102F0000F7D25B4621463846179A13E142E00A227F
:102F10000092C4F302524FF0000A022A08D059F876
:102F200004CB032A4FEAEC710AD00DE029E02AE035
:102F300009F1070121F00702F2E802C1914609E018
:102F40000FFA8CFC4FEAEC71042A03D14FFA8CFC87
:102F50004FEAEC71002907DA0A460021DCF1000C87
:102F600061EB02012D2202E0220504D52B228DF80F
:102F70000420012203E0E20701D02022F7E7904677
:102F800059E00A2102E010220DE010214FF0000A62
:102F900000910BE010224FF0000A44F004040827CF
:102FA000009203E008224FF0000A0092C4F302529C
:102FB000022A05D059F804CB0021032A08D009E0E1
:102FC00009F1070121F00702F2E802C1914605E08C
:102FD0001FFA8CFC042A01D10CF0FF0C4FF0000802
:102FE000220728D5702806D0009B83F0100353EAEF
:102FF0000A0305D00EE040228DF80420012208E0EB
:103000005CEA010206D030228DF804208DF805001C
:1030100002229046009B83F0080353EA0A030AD178
:103020005CEA010201D1620705D530228DF8042047
:103030004FF001087F1E582804D034A003900EA83A
:1030400002900DE036A0F9E753466046009AFDF77E
:10305000D5F884460398825C0298401E0290027064
:103060005CEA0100F0D1029806A9081A00F1200AD2
:10307000600702D524F4803400E00127574502DDC3
:10308000A7EB0A0000E0002000EB0A010090059881
:103090004144401A0590E00306D45B462146179A46
:1030A000059800F0B3F90544002706E001A85A4648
:1030B000C05D179990476D1C7F1C4745F6DBE00308
:1030C0000CD55B462146179A059800F09FF90544F8
:1030D00004E030205A46179990476D1C0099481E0D
:1030E00000900029F5DC08E0029802995A46007821
:1030F000491C0291179990476D1CBAF10001AAF181
:10310000010AF1DC65E100000928010030313233A9
:103110003435363738396162636465660000000013
:1031200030313233343536373839414243444546FD
:103130000000000000F058F90544761C30780028A3
:103140007FF4ECAD19B02846BDE8F08F620700D4DB
:10315000062709F1070222F0070CFCE80223E146EA
:1031600003F000485FEA080C02D00FF2702C0DE06B
:103170005FEA045C02D50FF2682C07E05FEAC47CCA
:1031800002D00FF2602C01E0AFF2700C4FF0FF386C
:1031900023F00043CDF850C065280CD006DC45284C
:1031A00009D046281DD047283DD13DE0662818D0DB
:1031B00067287ED138E00021112F01DB112000E0CB
:1031C000781CCDE9000106A90EA8FFF7DDFCDDE9BA
:1031D0000F010E9A03910021009207F1010A049158
:1031E0004DE04FF000400097CDE9011006A90EA870
:1031F000FFF7CAFCDDE90F0203920E9B1199002232
:10320000DDF80CA00093049211B9791C00EB010ABF
:10321000B7EB0A0004D4C0F1FF3007F1010A0490B3
:10322000AAEB0700019044E0012F00DA01270021FA
:10323000112F01DD112000E03846CDE9000106A97B
:103240000EA8FFF7A1FCDDE90F010E9A0391002102
:1032500004910092BA4621070CD40399514500DA33
:103260008A46BAF1010F05DD009AAAF10101515C0D
:10327000302908D0B84202DA10F1040F06DA012131
:10328000CDE9011015E0AAF10101E9E7002805DC0C
:10329000049901440491AAEB000102E0411C51454C
:1032A00000DD8A460499401A401C01904FF000400E
:1032B0000290200704D40198504501DBCDF804802A
:1032C00000208DF84F0002980DF14F07B0F1004F2C
:1032D00025D02B200E9002984FF0020800280CDA1F
:1032E000404202902D200E9007E00A210298FDF73F
:1032F000A1F83031029007F8011DB8F10001A8F1E2
:103300000108F2DC02980028EFD1791E0E980870AF
:10331000307800F0200040F0450007F8020D12A8B8
:10332000C01B00F107081498007800B1012000EBE1
:103330000A01019801EBE07105984144401A401ED2
:103340000590E00306D45B462146179A059800F0E5
:103350005DF805441498007818B15A4617999047BB
:103360006D1CE00324D55B462146179A059800F0B2
:103370004DF805441CE00498002807DBDDE9030153
:10338000884203DD0098405C179901E017993020CE
:103390005A469047049805F10105401C0490019895
:1033A000401E019004D12E205A46179990476D1C5B
:1033B000BAF10001AAF1010ADDDC05E017F8010B02
:1033C0005A46179990476D1CB8F10001A8F1010801
:1033D000F4DC5B462146179A0598ABE62D00000009
:1033E0002B000000200000002DE9F04104460025DC
:1033F0001E461746880404D405E039462020B0470D
:103400006D1C641EF9D52846BDE8F0812DE9F04118
:10341000044600251E469046C80301D5302700E02B
:103420002027880404D505E041463846B0476D1C86
:10343000641EF9D52846BDE8F0810A68531C0B606C
:103440001070704710B50122D1031148FDF778FEC6
:1034500042F21070FDF764FD012291030C48FDF764
:103460006FFE42F21070FDF75BFD0122402109481A
:10347000FDF766FE42F21070FDF752FD0122510287
:103480000548FDF75DFEC820FDF74AFD10BD0000B0
:1034900000040240000802400000024010B5002273
:1034A0004FF400410A48FDF74BFE00224FF48041E3
:1034B0000748FDF745FE002240210648FDF740FE83
:1034C00000224FF400710448FDF73AFE10BD0000E1
:1034D00000040240000802400000024010B5054808
:1034E000FEF721FB202804D1012203490148FEF701
:1034F000BDFC10BD100200200500002070B506467E
:1035000000240025304600F089F906463349701C36
:10351000FCF7BEFE00BF0DE02046641C2F490A5C8C
:1035200028466D1C06F133010A5486F84750142DC5
:1035300000D10FE02948005D20280BD02748005D0E
:103540000D2807D02548005D0D2803D02348005DD5
:103550000028E1D100BF641C00250DE02046641C5A
:103560001E490A5C28466D1C06F148010A5486F87B
:1035700052500A2D00D10BE01848005D202807D0DA
:103580001648005D0D2803D01448005D0028E5D1E1
:1035900000BF641C00250DE02046641C0F490A5C36
:1035A00028466D1C06F153010A5486F85D500A2D19
:1035B00000D10BE00948005D202807D00748005DD6
:1035C0000D2803D00548005D0028E5D100BF322159
:1035D0000248FCF74BFE304670BD00004A01002057
:1035E00010B50024012403E000F005F8601CC4B20B
:1035F0001D2CF9DD10BD10B5002400BF03E0012033
:10360000FDF78EFC641CB4F57A7FF8D910BD10B5B7
:10361000182000F0C1F804465E2000F0BDF82060DC
:10362000204610BD70B505460C46012D15D1012C64
:1036300004D100221548FDF783FD26E0022C05D1B8
:10364000012211461148FDF77BFD1EE0032C1CD121
:1036500001210E48FDF770FD17E0022D15D1012C58
:1036600005D1002202210948FDF76AFD0DE0022C78
:1036700005D1012202210548FDF762FD05E0032C7A
:1036800003D102210148FDF757FD70BD000802403B
:10369000FDF76EFDFEF71CFFFEF774FDFEF72AFE38
:1036A000FEF70CFEFEF738FD0024FFF7B0FF0446DE
:1036B000012224492448FEF7D9FB24480068401C15
:1036C00022490246086022A12F48FFF739FA2E4806
:1036D000FCF7D7FDC5B22A462B49012000F038F986
:1036E00002210120FFF79EFF02210846FFF79AFF03
:1036F00027E026480078012821D1206800F08EF8C4
:1037000020602068FFF7FAFE206000201F49087043
:103710001F490870204600F089F80446206800F030
:103720007DF820601BA11848FFF70AFA1648FCF73D
:10373000A8FDC5B22A461449012000F009F9FFF797
:10374000CDFED6E707000020D001002000000020B9
:103750000A0D537465703A20253564207C3D3D3D4B
:103760003D3D3D3D3D3D3D73757065726361705FEC
:103770004E5444492056312E31203D3D3D3D3D3D86
:103780003D3D3D3D7C0A0D0050000020040000201E
:10379000060000200A0D0000F0B50B30154D20F09A
:1037A00007010024144A0FE003688B420BD38B42BD
:1037B00005D95E1A43184768C3E9006700E043680B
:1037C000136002C004E0021D10680028ECD12046FE
:1037D000002802D1286808B10020F0BD064A074839
:1037E0001060074A121A22F00702C0E900240120E3
:1037F0002860D7E74C000020480000205402002039
:103800005004002070B504460025012503E0FFF7B1
:10381000E7FE681CC5B2A542F9DD70BD10B50446CF
:103820005E212046FCF722FD204610BD10B504465F
:10383000206890F84700002876DD216891F847203D
:1038400001F1330039A1FCF72CFD90B9216891F802
:10385000522001F1480036A1FCF723FD002863D176
:10386000216891F85D2001F1530033A1FCF719FDA7
:103870005AE0216891F8472001F133002FA1FCF7AD
:1038800010FDB0B9216891F8522001F1480028A13B
:10389000FCF707FD002847D1216891F85D2001F170
:1038A000530025A1FCF7FDFC00283DD100F05EF897
:1038B0003AE0216891F8472001F1330021A1FCF79B
:1038C000F0FCA0B9216891F8522001F148001EA136
:1038D000FCF7E7FC40BB216891F85D2001F1530043
:1038E00015A1FCF7DEFCF8B9FFF7ACFD1CE0216880
:1038F00091F8472001F1330014A1FCF7D2FC98B9EC
:10390000216891F8522001F148000FA1FCF7C9FC91
:1039100050B9216891F85D2001F1530006A1FCF730
:10392000C0FC08B9FFF7BAFD204610BD494D500054
:103930005245414400000000414C4C00564F4C544D
:10394000000000004348000050494E004449530025
:1039500070B506460D461446631D224629460248A8
:10396000FEF76CFB70BD0000100200202DE9F04155
:103970002DED088B82B09FEDF70AB0EE40BAF6A1AC
:10398000F648FFF7DDF8F548FCF77BFCC7B23A468E
:10399000F2490120FFF7DCFF00259FEDEE0AB0EEB3
:1039A000408A9FEDEF0AF0EE40BAA846002008EEEC
:1039B000900A0024FFF746FD012454E02046FDF75D
:1039C00007F89FEDE40AE74880ED000A0020E64989
:1039D00008600520FDF73CF8E3490860084690EDD3
:1039E000000AB8EE400ADFEDE10A20EE200ADD48C9
:1039F00080ED000A90ED000ADFEDDD0A80EE201A6E
:103A000080ED001A0068FCF7CDFC41EC1A0B9FED2D
:103A1000D90B53EC102BFCF753FC41EC190BFCF7C2
:103A2000EDFCD049086008460068FCF7BBFC41EC9F
:103A3000190B8DED009B2246D0A1C848FFF780F8F6
:103A4000C648FCF71EFCC7B23A46C4490120FFF73E
:103A50007FFF9FEDC00AC34880ED000A6420FDF798
:103A60005FFA601CC4B2042CA8DD012555E029468C
:103A70000120FEF77DFCC820FDF752FA29460120FF
:103A8000FEF7CEFC4FF4FA70FDF74AFA2846FCF731
:103A90009FFF0420FCF7DCFF08EE900AB8EE680AEE
:103AA000DFEDB20A20EE200AB0EE408A9FEDB00AA8
:103AB000C8EE000AB0EE608A18EE100AFCF772FC3D
:103AC00041EC1A0B9FEDAB0B53EC102BFCF7F8FB02
:103AD00041EC190BFCF792FC08EE100A18EE100AE4
:103AE000FCF760FC41EC190B8DED009B2A46AAA166
:103AF0009A48FFF725F89948FCF7C3FBC7B23A4646
:103B000096490120FFF724FF29460220FEF788FC92
:103B10006420FDF705FA681CC5B2042DA7DD9FEDF2
:103B20008D0AB0EE40BA01210846FFF77BFD0F2059
:103B3000FFF768FE01210220FFF774FD0024012435
:103B40009CE021460220FEF713FC2046FCF740FFD4
:103B50009FED800A834880ED000A002082490860BA
:103B60000520FCF775FF80490860084690ED000AC3
:103B7000B8EE400ADFED7D0A20EE200A794880ED9C
:103B8000000A90ED000ADFED7A0A80EE201A80ED3F
:103B9000001A0068FCF706FC41EC1A0B9FED750B50
:103BA00053EC102BFCF78CFB41EC190BFCF726FCBB
:103BB0006C49086008460068FCF7F4FB41EC190BFF
:103BC0008DED009B22467AA16448FEF7B9FF634859
:103BD000FCF757FBC7B23A4660490120FFF7B8FE31
:103BE00041F65830FDF79CF99FED5A0A5D4880ED8B
:103BF000000A00205C4908600520FCF729FF5A49AB
:103C00000860084690ED000AB8EE400ADFED570A5A
:103C100020EE200A534880ED000A90ED000ADFED07
:103C2000540A80EE201A80ED001A0068FCF7BAFBF7
:103C300041EC1A0B9FED4F0B53EC102BFCF740FBA4
:103C400041EC190BFCF7DAFB4649086008460068AE
:103C5000FCF7A8FB41EC190B8DED009B22465EA101
:103C60003E48FEF76DFF3D48FCF70BFBC7B23A46F6
:103C70003A490120FFF76CFE601CC4B2042C7FF7A8
:103C800060AF00269FED330AB0EE40BA01265AE03D
:103C90003046FCF79DFE00BF9FED2E0A314880EDB7
:103CA000000A0020304908600520FCF7D1FE2E49AB
:103CB0000860084690ED000AB8EE400ADFED2B0AD6
:103CC00020EE200A274880ED000A90ED000ADFED83
:103CD000280A80EE201A80ED001A0068FCF762FBCB
:103CE00041EC1A0B9FED230B53EC102BFCF7E8FA79
:103CF00041EC190BFCF782FB1A4908600846006882
:103D0000FCF750FB41EC190B9FED3A0B53EC102BD9
:103D1000FCF75CFBC0D313480068FCF743FB41ECA5
:103D2000190B8DED009B324634A10C48FEF708FFBD
:103D30000A48FCF7A6FAC7B23A4608490120FFF73D
:103D400007FE701CC6B2042EA2DD02B0BDEC088BCB
:103D5000BDE8F081000000000A0D000050000020C6
:103D600000C0DA45440000204000002033335340B7
:103D7000000080458FC2F5285C8F164053434150A8
:103D80005B25645D5F3132562044455445435445BC
:103D9000442D3A25660A0D0053454E5345205641A1
:103DA0004C5545205B25645D3A25660A0D000000F0
:103DB000766F6C74206265666F726520372073655C
:103DC000636F6E642064656C61795B25645D2D3A78
:103DD00025660A0D00000000766F6C742061667421
:103DE00065722064656C61795B25645D2D3A25669A
:103DF0000A0D0000000000000000E03F66696E61EF
:103E00006C2076616C75655B25645D2D3A25660ACC
:103E10000D0000000000000000000000010203048B
:103E20000607080900000000010203044455545F1E
:103E30005643435F315631004455545F4750533128
:103E40005F335633000000004455545F5643435FD0
:103E5000335633004455545F5643435F335637005F
:103E60004455545F5643435F315638004455545FC0
:103E70005643435F313256004455545F5057525FAA
:103E800053454E53455F3132560000004455545F50
:103E90005553425F35560000B83E00080000002030
:103EA00050000000682B0008083F00085000002068
:103EB00000080000782B000800000000000000004F
:103EC00000000000000000001000000001000000E1
:103ED0000024F400000000006C3E0008783E00085A
:103EE0008C3E0008543E0008483E0008383E00085A
:103EF000603E00082C3E00080000000000000000AA
:083F00000000000000000000B9
:04000005080001C529
:00000001FF
