:020000040800F2
:1000000058080020D9010008B12200081D2000086E
:10001000AD22000849090008652900080000000019
:10002000000000000000000000000000EF220008B7
:100030004D09000800000000ED220008F122000830
:10004000F3010008F3010008F3010008F3010008C0
:10005000F3010008F3010008F3010008F3010008B0
:10006000F3010008F3010008F3010008F3010008A0
:10007000F3010008F3010008F3010008F301000890
:10008000F3010008F3010008F3010008F301000880
:10009000F3010008F3010008F3010008F301000870
:1000A000F3010008F3010008F3010008F301000860
:1000B000F3010008F3010008F3010008F301000850
:1000C000F3010008F3010008F3010008F301000840
:1000D000F3010008F3010008F3010008F301000830
:1000E000F3010008F3010008F3010008F301000820
:1000F000F3010008F3010008F3010008F301000810
:10010000F3010008F3010008F3010008F3010008FF
:100110001924000829240008F3010008F30100084D
:10012000F3010008F3010008F3010008F3010008DF
:10013000F30100080000000000000000F3010008C7
:10014000F3010008F3010008F3010008F3010008BF
:10015000F3010008F3010008F3010008F3010008AF
:10016000F3010008F3010008F3010008F30100089F
:10017000F3010008F3010008F3010008000000008B
:1001800000000000F3010008000000000000000073
:10019000F30100080000000000000000F301000867
:1001A000000000000000000000000000F301000853
:1001B000F3010008F3010008F3010008F30100084F
:1001C000F3010008DFF80CD000F07AFA004800478D
:1001D000F1370008580800200648804706480047C5
:1001E000FEE7FEE7FEE7FEE7FEE7FEE7FEE7FEE7E7
:1001F000FEE7FEE7B5230008C50100082DE9F05F22
:100200000546002092469B46884606468146402485
:100210001BE0284641464746224600F089F85346EF
:100220005A46C01A914110D311461846224600F092
:1002300070F82D1A67EB01084F4622460120002175
:1002400000F067F817EB00094E41201EA4F10104ED
:10025000DFDC484631462A464346BDE8F09FD2B22D
:1002600001E000F8012B491EFBD270470022F6E79F
:1002700010B513460A4604461946FFF7F0FF20461C
:1002800010BD421C10F8011B0029FBD1801A7047D9
:10029000034611F8012B00F8012B002AF9D118466A
:1002A000704730B505460020034600E05B1C9342D2
:1002B00005D2EC5CC85C201A01D1002CF6D130BD0F
:1002C00000F0004230F000400AD0C10D01F560712D
:1002D000C0F3160042EA0151C208400711437047BB
:1002E00000200146704730B50B4601460020202211
:1002F000012409E021FA02F59D4205D303FA02F533
:10030000491B04FA02F52844151EA2F10102F1DC92
:1003100030BD202A04DB203A00FA02F100207047A9
:100320009140C2F1200320FA03F319439040704733
:10033000202A04DB203A21FA02F00021704721FA3A
:1003400002F3D040C2F120029140084319467047A1
:100350002DE9FE4F804681EA0300C00F0C46009055
:1003600021F0004123F00045B8EB0200A94105D27D
:100370004046214690461C460B46024623F000406C
:10038000104347D0270DC7F30A00C3F30A51029068
:10039000401A019040286BDAC3F3130040F4801B2D
:1003A0000098924620B10023D2EB030A63EB0B0BBB
:1003B00001985946C0F140025046FFF7AAFF064691
:1003C0000D4650465946019A00F08CF910EB080092
:1003D0006141002487EA115284EAE7731A4340D04E
:1003E000009A62B3019A012A4FEA075215DC001BFA
:1003F00061EB02014FF0004202EA0752CDE90042F0
:10040000001C41F5801132462B4600F08CF903B0F8
:10041000BDE8F08F40462146F9E7001B61EB020181
:10042000001C41F5801300185B412018A2F500174D
:1004300047EB030140EAD570B6196D4111E06D0834
:100440004FEA360645EAC0754FEA0752001B61EBDA
:100450000201001C41F5801149084FEA30000019E3
:10046000514132462B4603B0BDE8F04F00F04CB985
:100470000098012240000023D0EB020263EBE073FE
:10048000009821464FEAE074B8EB000061EB0401EC
:10049000E9E783F000435BE781F0004158E72DE98D
:1004A000FE4F81EA030404F0004421F0004100946F
:1004B0004FF0000B23F0004350EA01045ED052EAF3
:1004C00003045BD0C3F30A54C1F30A552C44A4F2CD
:1004D000F3340194A0FB0254C1F3130141F48011E1
:1004E000C3F3130343F4801301FB024400FB034EE8
:1004F000840A970A44EA815447EA8357A4FB0768B1
:1005000002958D0A05FB07854FEA932C04FB0C54DA
:100510002705029D4FEA065847EA1637B5EB08054E
:100520006EEB070C870E920E47EA811742EA8312A0
:10053000A7FB0201B6EB0B0164EB00042B0D43EAB1
:100540000C335E1844EB1C50DA465146E7FB0201BF
:10055000C5F313044FEA0B3343EA14534FEA043252
:10056000019C43EA0603A4F10C040294009CCDE92B
:1005700000B400F0D8F803B0BDE8F08F00200146C9
:10058000F9E72DE9F04D81EA030404F0004B21F076
:10059000004514464FF0000A23F0004150EA0502DE
:1005A00020D054EA01021DD0C5F30A570246C5F314
:1005B0001303C1F31300C1F30A5640F4801543F44A
:1005C0008013A7EB0608101BD64608F2FD3873EB24
:1005D000050002D308F1010801E092185B41B8F16F
:1005E000000F03DA00200146BDE8F08D00204FF433
:1005F0008011064684460EE0171B73EB050705D3F2
:10060000121B63EB050306434CEA010C49084FEA51
:10061000300092185B4150EA0107EDD152EA030025
:1006200012D082EA040083EA0501084305D0101BBA
:10063000AB4106D20122002306E000224FF0004326
:1006400002E06FF0010253101AEB06004CEB085168
:1006500010EB0A0041EB0B01BDE8F04D00F054B87F
:10066000C1F30A52C1F3130140F2FF3341F4801188
:100670009A4202DA00200146704740F233439A4220
:10068000A2F2334202DC5242FFF752BEFFF741BEF4
:1006900030B5041E71F1000404DB4FF00044404209
:1006A00064EB0101141E73F1000405DB1C464FF0DE
:1006B0000043524263EB0403994208BF904230BDAD
:1006C000064C074D06E0E06840F0010394E807009F
:1006D00098471034AC42F6D3FFF778FDE44E00089B
:1006E000044F0008202A06DBCB17203A41FA02F01B
:1006F00043EAE07306E041FA02F3D040C2F120027F
:10070000914008431946704710B5141E73F1000458
:1007100008DA401C41F1000192185B411A4301D1F3
:1007200020F0010010BD2DE9F04D92469B4611B11D
:10073000B1FA81F202E0B0FA80F220329046FFF77F
:10074000E8FD04460F4640EA0A0041EA0B01534621
:100750005A46084313D0114653EA010019D0C8F194
:1007600040025046FFF7E4FD05460E465046594606
:100770004246FFF7CEFD084305D0012004E02046A5
:100780003946BDE8F08D0020054346EAE0762C436B
:1007900037430A986305E40AA0EB08000022FD0A2B
:1007A00044EA47540A3002D500200146E9E7010532
:1007B00010196941DDE9084500196941BDE8F04DAE
:1007C000A2E7000054494A6822F440324A604A686D
:1007D00043681A434A600268526822F480720368D0
:1007E0005A6002685368026943EA022203685A6049
:1007F0000268526822F0407203685A6002685268C8
:1008000083681A4303685A600268926822F400629F
:1008100003689A6002689268C3681A4303689A6022
:100820003E4B826A9A4218D00268926822F0706247
:1008300003689A6002689268836A1A4303689A6040
:100840000268926822F0405203689A6002689268D7
:10085000C36A1A4303689A600BE00268926822F048
:10086000706203689A600268926822F040520368DE
:100870009A600268926822F0020203689A60026835
:100880009368826943EA420203689A60026AA2B1ED
:100890000268526842F4006203685A600268526853
:1008A00022F4604203685A6002685368426A521E2A
:1008B00043EA423203685A6005E00268526822F453
:1008C000006203685A600268D26A22F47002036808
:1008D000DA620268D36A828B521E43EA02520368CC
:1008E000DA620268926822F4007203689A60026811
:1008F0009368026B43EA422203689A600268926836
:1009000022F4806203689A6002689368426943EA4D
:10091000822203689A607047002301400100000FA3
:1009200010B50446012C05D101220102054800F052
:1009300095FB05E000224FF48071024800F08EFB29
:1009400010BD00000004024000BFFEE77047704782
:100950007FB50446002500940120019007200290F5
:10096000002003906946114800F022F808B1FFF713
:10097000EEFF0E4800F0CEF908B1FFF7E8FF0A21BC
:100980000A4800F069F908B1FFF7E1FF074800F0F5
:10099000D9F800F40070B0F5007F03D1034800F0EF
:1009A000D4F80546284604B070BD00009001002030
:1009B00038B502460020009000BF92F83C000128A4
:1009C00001D1022038BD012082F83C0000BF086838
:1009D000092816D91068C0680C780A3C04EB440555
:1009E0000724AC40A0431468E0600C780A3C04EB98
:1009F00044048868A0401468E46820431468E060F8
:100A000013E0106800690C7804EB44050724AC403F
:100A1000A043146820610C7804EB44048868A0406B
:100A2000146824692043146820614868072817D295
:100A30001068406B0C79641E04EB84051F24AC40E5
:100A4000A04314686063088880B20C79641E04EBCC
:100A50008404A0401468646B20431468606331E030
:100A600048680D2817D21068006B0C79E41F04EB5E
:100A700084051F24AC40A04314682063088880B21A
:100A80000C79E41F04EB8404A0401468246B204319
:100A90001468206316E01068C06A0C790D3C04EB02
:100AA00084051F24AC40A0431468E062088880B22B
:100AB0000C790D3C04EB8404A0401468E46A2043E4
:100AC0001468E0621A4B1B4C1068A04206D10868FB
:100AD000122803D1586840F480005860154C106803
:100AE000A0421ED1144C0868A04202D00868112808
:100AF00017D1586840F4000058600F4C0868A042B5
:100B00000FD10E4800680E4CB0FBF4F000EB8000F3
:100B10004000009002E00098401E009000980028DD
:100B2000F9D100BF002082F83C0000BF00BF49E7B8
:100B30000023014000200140120000101800002096
:100B400040420F000146086C704701460868C06CBF
:100B50007047000070B5044600250CB9012070BD37
:100B60001549A06A884200D000BF206C30B900202F
:100B7000606484F83C00204600F020F8206C00F00F
:100B8000100088B9206C20F4885040F002002064E6
:100B90002046FFF717FE00206064206C20F0020062
:100BA00040F00100206400E0012500BF002084F82F
:100BB0003C0000BF2846D2E70100000F10B586B008
:100BC0000446142101A8FFF751FB20492068884200
:100BD0003AD100BF002000901D48006840F400702A
:100BE0001B4908600846006800F40070009000BFD0
:100BF00000BF00BF0020009015481438006840F086
:100C000004001349143908600846006800F0040025
:100C1000009000BF00BF00BF0020009008460068A1
:100C200040F0010008600846006800F001000090F4
:100C300000BF00BF0C200190032002900020039011
:100C400001A9044800F00EF906B010BD00210140D2
:100C5000443802400000024070B504460D460026AC
:100C60002068806800F4806078B12068806800F4B3
:100C7000807050B1206C40F02000206400BF002044
:100C800084F83C0000BF012070BD00F0EDF906467D
:100C900012E0681C80B125B100F0E6F9801BA84283
:100CA0000AD9206C40F00400206400BF002084F8C2
:100CB0003C0000BF0320E7E72068006800F0020066
:100CC0000228E6D16FF0120021680860206C40F421
:100CD000007020642068806800F04050B8B9A069B6
:100CE000A8B92068C06A00F4700020B1206880684C
:100CF00000F4806058B9206C20F480702064206C6F
:100D000000F4805018B9206C40F0010020640020ED
:100D1000BAE7000008B501460020009000BF91F836
:100D20003C00012801D1022008BD012081F83C00CF
:100D300000BF0868806800F00100A0B908688068FA
:100D400040F001000B6898602E4800682E4BB0FB05
:100D5000F3F000EB4000009002E00098401E00908D
:100D600000980028F9D10868806800F00100002888
:100D700045D0086C40F20163984340F480700864E9
:100D80000868406800F4806028B1086C20F40050C6
:100D900040F480500864086C00F4805020B1486C26
:100DA00020F00600486401E00020486400BF0020F5
:100DB00081F83C0000BF154A6FF022000B681860F4
:100DC000506800F01F0058B90868806800F0405073
:100DD000A8B90868806840F080400B6898600EE011
:100DE0000B4B086898420AD10868806800F04050B0
:100DF00028B90868806840F080400B68986000203F
:100E000092E700001800002040420F00002301403C
:100E100000200140014691F83500022803D08020CF
:100E2000486501207047052081F835000868006892
:100E300020F001000A6810600020F3E770B5044656
:100E400000F012F906462546681C10B104480078E7
:100E5000054400BF00F008F9801BA842FAD370BD1A
:100E600014000020F8B502460B460025002400209F
:100E70000021D7E0012606FA01F51E6806EA0504FE
:100E8000AC4273D15E68022E02D05E68122E13D17E
:100E9000CF0802F1200656F827004E07F70E0F265E
:100EA000BE40B0434F07FF0E1E69BE403043CF081F
:100EB00002F1200646F8270010684F000326BE40C6
:100EC000B0431E7906F003064F00BE403043106069
:100ED0005E68012E08D05E68022E05D05E68112E75
:100EE00002D05E68122E13D190684F000326BE40D8
:100EF000B0434F00DE68BE4030439060506801262A
:100F00008E40B0431E79C6F300168E4030435060C9
:100F1000D0684F000326BE40B0434F009E68BE40DD
:100F20003043D0605E6806F08056B6F1805F78D1BD
:100F300000BF002600963D4E366846F480463B4F83
:100F40003E603E46366806F48046009600BF00BF0D
:100F5000374E8F0856F827008E07370F0F26BE40F2
:100F6000B043344EB24202D100261FE059E0324E67
:100F7000B24201D1012619E0304EB24201D102261F
:100F800014E02F4EB24201D103260FE02D4EB242A3
:100F900001D104260AE02C4EB24201D1052605E01B
:100FA0002A4EB24201D1062600E007268F073F0FE6
:100FB000BE4030431E4E8F0846F82700244E30684E
:100FC000A0435E6806F48036B6F5803F00D120432A
:100FD0001F4E3060361D3068A0435E6806F4003650
:100FE000B6F5003F00D12043194E361D3060361D46
:100FF0003068A0435E6806F48016B6F5801F00D105
:101000002043134E08363060361D3068A0435E68BA
:1010100006F40016B6F5001F00D120430C4E0C3626
:101020003060491C1029FFF425AFF8BD4438024058
:10103000083801400000024000040240000802405D
:10104000000C024000100240001402400018024050
:10105000003C014042694A40426170470AB18161E7
:1010600001E00B048361704701480068704700008D
:101070000C0000200348006803490978084401492E
:10108000086070470C0000201400002010B50D48C7
:10109000006840F400700B4908600846006840F49E
:1010A000806008600846006840F480700860032093
:1010B00000F0A0F8002000F007F800F02BF8002066
:1010C00010BD0000003C024070B504460E48007898
:1010D0004FF47A71B1FBF0F00C490968B1FBF0F5FF
:1010E000284600F093FC08B1012070BD102C07D2F7
:1010F00000222146501E00F03EF80548046001E041
:101100000120F2E70020F0E7140000201800002082
:101110001000002008B500BF002000900E480068B5
:1011200040F480400C4908600846006800F48040A4
:10113000009000BF00BF00BF00200090081F0068A3
:1011400040F08050091F08600846006800F0805099
:10115000009000BF00BF08BD4438024000BF00F04F
:101160001F02012191404209920002F1E022C2F8DF
:10117000001100BF70472DE9F05F80460D4616460E
:10118000002701F097F8074639462A46334601F012
:101190000700C0F1070ABAF1040F02D94FF0040AA0
:1011A00001E0C0F1070AD14600F1040ABAF1070FC5
:1011B00002D24FF0000A01E0A0F1030AD4464FF03A
:1011C000010A0AFA09FAAAF1010A0AEA020A0AFA63
:1011D0000CFA4FF0010B0BFA0CFBABF1010B0BEA15
:1011E000030B4AEA0B042146404601F06BF8BDE8C8
:1011F000F09F000000BF00F00702064B19684FF691
:10120000FF031940044B0B4343EA0221014B1960D1
:1012100000BF70470CED00E00000FA0538B500246F
:1012200000BF002000901D48006840F080501B491E
:1012300008600846006800F08050009000BF00BFC2
:10124000012017490864FFF70FFF044607E0FFF786
:101250000BFF001BB0F57A7F01D9032038BD114880
:10126000406800F48030B0F5803FF0D101200C4997
:101270004864FFF7F9FE044607E0FFF7F5FE001BA0
:10128000B0F57A7F01D90320E8E70648406800F40A
:101290000030B0F5003FF0D10020DFE740380240D9
:1012A00000000E420070004070B504460D460CB9B7
:1012B000012070BD5848006800F00F00A84209D214
:1012C00055490D700846006800F00F00A84201D093
:1012D0000120EEE7207800F0020002281DD12078DE
:1012E00000F00400042805D14C48006840F4E050A8
:1012F0004A490860207800F00800082805D14748CE
:10130000006840F46040454908604448006820F0A7
:10131000F000A168084341490860207800F001000E
:10132000A8B36068012807D13C4808380068C0F3BA
:101330004040B8B90120BCE76068022802D060686C
:10134000032807D1354808380068C0F3406048B921
:101350000120AEE7314808380068C0F3400008B902
:101360000120A6E72D48006820F0030061680843CB
:101370002A490860FFF778FE064609E0FFF774FE89
:10138000801B41F28831884202D9032091E707E0AF
:101390002248006800F00C006168B0EB810FEDD1CD
:1013A0001D48006800F00F00A84209D91A490D70C5
:1013B0000846006800F00F00A84201D0012078E73D
:1013C000207800F00400042807D11448006820F4B5
:1013D000E050E168084311490860207800F00800F7
:1013E000082808D10D48006820F46040216940EACF
:1013F000C1000A49086000F03DF808490968C1F3D6
:101400000311074A515CC840064908600020FFF7F5
:101410005BFE00204DE70000003C0240083802401F
:10142000C04C000818000020014800687047000008
:101430001800002000B5FFF7F7FF04490968C1F361
:101440008221034A515CC84000BD000008380240B8
:10145000D04C000800B5FFF7E7FF04490968C1F365
:101460004231034A515CC84000BD000008380240C8
:10147000D04C00082DE9F047002400250026A146A5
:10148000A2463F48006800F00C0030B1042807D0A5
:10149000082808D00C286BD138E0DFF8E8A06AE013
:1014A000DFF8E4A067E03648001F006800F03F0462
:1014B0003348001F006800F4800078B1324830499A
:1014C000091F0968C1F38811A0FB0170014622467B
:1014D00000233846FEF792FE05460DE029482849CC
:1014E000091F0968C1F38811A0FB0171224600237E
:1014F0003846FEF783FE05462148001F0068C0F30A
:101500000140401C4600B5FBF6FA34E01C48001FC1
:10151000006800F03F041A48001F006800F48000D3
:1015200078B119481649091F0968C1F38811A0FB51
:1015300001700146224600233846FEF75FFE05464D
:101540000EE010480E49091F0968C1F38811A0FB7D
:1015500001700146224600233846FEF74FFE05463D
:101560000748001F0068C0F30279B5FBF9FA02E0F2
:10157000DFF810A000BF00BF5046BDE8F0870000B4
:10158000083802400024F40000127A00F8B504463E
:101590000025207800F0010000286FD0FD48006889
:1015A00000F00C0004281BD0FA48006800F00C0082
:1015B000082807D1F748001F006800F48000B0F544
:1015C000800F0DD0F348006800F00C000C2813D1F8
:1015D000F048001F006800F48000B0F5800F0BD1C8
:1015E000EC4808380068C0F34040002859D06068D3
:1015F000002856D10120F8BD00BF6068B0F5803FDB
:1016000008D1E4480838006840F48030E1490839DE
:1016100008601EE06068B0F5A02F0DD1DD480838E5
:10162000006840F48020DB490839086008460068FB
:1016300040F4803008600CE0D6480838006820F498
:101640008030D449083908600846006820F48020BA
:10165000086000BF606890B1FFF706FD054606E030
:10166000FFF702FD401B642801D90320C3E7C948E6
:1016700008380068C0F340400028F1D011E0FFF7BF
:10168000F3FC054606E0FFF7EFFC401B642801D998
:101690000320B0E7BF4808380068C0F34040002886
:1016A000F1D1207800F0020002286BD1B94800681F
:1016B00000F00C00B8B1B748006800F00C00082832
:1016C00005D1B448001F006800F4800058B1B1484B
:1016D000006800F00C000C281CD1AE48001F006808
:1016E00000F48000B0B9AB4808380068C0F340008F
:1016F00020B1E068012801D001207CE7A548083826
:10170000006820F0F800216940EAC100A1490839C9
:10171000086037E0E06800B301209F490860FFF7E8
:10172000A3FC054606E0FFF79FFC401B022801D9F9
:10173000032060E7974808380068C0F3400000289D
:10174000F1D094480838006820F0F800216940EA98
:10175000C10090490839086014E000208E490860F3
:10176000FFF782FC054606E0FFF77EFC401B0228DF
:1017700001D903203FE7874808380068C0F34000DC
:101780000028F1D1207800F0080008282CD16069E9
:10179000A8B1012081490860FFF766FC054606E014
:1017A000FFF762FC401B022801D9032023E7794898
:1017B0006C300068C0F340000028F1D014E0002035
:1017C00076490860FFF750FC054606E0FFF74CFC41
:1017D000401B022801D903200DE76E486C300068D9
:1017E000C0F340000028F1D1207800F00400042864
:1017F00070D1002667483830006800F0805090B9FA
:1018000000BF0020009063483830006840F08050EE
:101810006049383108600846006800F08050009048
:1018200000BF00BF01265E48006800F48070B0B9B8
:101830005B48006840F4807059490860FFF714FC69
:10184000054606E0FFF710FC401B022801D90320E3
:10185000D1E65348006800F480700028F2D000BF41
:10186000A068012808D14B486830006840F00100AA
:101870004849683108601DE0A06805280DD1454839
:101880006830006840F0040042496831086008464A
:10189000006840F0010008600CE03E4868300068D5
:1018A00020F001003B49683108600846006820F0DC
:1018B0000400086000BFA068A8B1FFF7D5FB05468B
:1018C00009E0FFF7D1FB401B41F28831884202D981
:1018D000032090E626E02F4868300068C0F34000FF
:1018E0000028EED013E0FFF7BFFB054608E0FFF746
:1018F000BBFB401B41F28831884201D903207AE6C4
:10190000244868300068C0F340000028EFD1012E61
:1019100007D120483830006820F080501D49383108
:10192000086000BFA069E8B31A48006800F00C0026
:10193000082862D0A06902284AD10020164908660A
:10194000FFF792FB054606E0FFF78EFB401B0228DF
:1019500001D903204FE60F4808380068C0F3406003
:101960000028F1D1D4E907010843616A40EA8111F6
:101970000122A06AC2EB500041EA00412C20005D28
:1019800041EA00613020005D41EA00700149091F11
:10199000086008E00838024000004742800E4742D5
:1019A000007000402BE0012016490866FFF75CFB41
:1019B000054606E0FFF758FB401B022801D903202B
:1019C00019E611480068C0F340600028F2D016E024
:1019D00000200C490866FFF747FB054606E0FFF7C5
:1019E00043FB401B022801D9032004E60648006897
:1019F000C0F340600028F2D101E00120FBE50020A7
:101A0000F9E50000000047420038024070B5044686
:101A10002546681EB0F1807F01D301200FE0681ECB
:101A20004FF0E02148610F214FF0FF3000F04AFCF9
:101A300000204FF0E021886107200861002070BD80
:101A4000704701460022002391F8392091F83A307E
:101A500042EA0300704700002DE9F0470446206881
:101A600005682068C668206847694FF00008C146CD
:101A700005F00F08B8F1000F0AD105F0200038B1C9
:101A800006F0200020B1204600F000FDBDE8F08700
:101A9000B8F1000F6DD007F0010018B906F490708E
:101AA000002866D005F0010030B106F4807018B14E
:101AB000E06B40F00100E06305F0040030B107F096
:101AC000010018B1E06B40F00200E06305F0020095
:101AD00030B107F0010018B1E06B40F00400E063A2
:101AE00005F0080030B107F0010018B1E06B40F0DC
:101AF0000800E063E06B68B305F0200028B106F051
:101B0000200010B1204600F0C1FC20684069C0F3FD
:101B10008019E06B00F0080010B9B9F1000F22D075
:101B2000204600F093FC2068406900F04000B0B10E
:101B30002068406920F0400021684861606B50B126
:101B40001748616B0865606BFFF764F910B1606B53
:101B5000016D88470CE02046FFF772FF08E0204641
:101B6000FFF76EFF04E02046FFF76AFF0020E06306
:101B70008CE705F0800030B106F0800018B12046F7
:101B800000F086FE82E705F0400030B106F040002C
:101B900018B1204600F06AFC78E700BF76E7000045
:101BA0003924000810B504460CB9012010BDA06905
:101BB00000B100E000BF94F8390028B9002084F893
:101BC0003800204600F028F8242084F839002068E6
:101BD000C06820F400502168C860204600F0A4FCD2
:101BE0002068006920F490402168086120684069FD
:101BF00020F02A00216848612068C06840F4005045
:101C00002168C8600020E063202084F8390084F84F
:101C10003A000020CAE7000010B586B0044614213F
:101C200001A8FEF723FB51492068884255D100BF27
:101C3000002000904E48006840F480104C49086035
:101C40000846006800F48010009000BF00BF00BF8D
:101C50000020009046481038006840F004004449D5
:101C6000103908600846006800F00400009000BFCA
:101C700000BF00BF002000900846006840F0080048
:101C800008600846006800F00800009000BF00BF30
:101C900088140190022002900120039003200490F8
:101CA0000820059001A93348FFF7DCF804200190D3
:101CB0000220029001200390032004900820059048
:101CC00001A92D48FFF7CEF8002211463520FFF775
:101CD00052FA3520FFF742FA45E028492068884249
:101CE00041D100BF002000902148006840F400204E
:101CF0001F4908600846006800F40020009000BFFB
:101D000000BF00BF0020009019481038006840F064
:101D100001001749103908600846006800F001000A
:101D2000009000BF00BF012001900220029001201E
:101D30000390032004900820059001A91048FFF7A4
:101D400091F802200190029001200390032004905A
:101D50000820059001A90A48FFF784F800221146DF
:101D60003420FFF708FA06B010BD00000050004014
:101D70004038024000080240000C0240004C004085
:101D80000000024010B5034693F83A00202829D1FC
:101D900001B10AB9012010BD00BF93F83800012835
:101DA00001D10220F7E7012083F8380000BF9962D3
:101DB0009A85DA850020D863222083F83A0000BF94
:101DC000002083F8380000BF1868406940F0010027
:101DD0001C6860611868C06840F490701C68E0601E
:101DE0000020D8E70220D6E770B5044646492068AF
:101DF000884265D1454800780D285BD0434800787B
:101E0000242857D041480078002853D03F48007814
:101E10005B2852D03D48007808280FD100213C486B
:101E20000078401EC0B23A4A10703A4A1154042356
:101E300002222021384800F085F83EE0334800783F
:101E40001B2809D132480078002805DD3048007889
:101E5000401E2F49087030E02C4800781A2809D11C
:101E60002B480078322805DA29480078401C284998
:101E7000087022E025480078612810DB23480078AC
:101E80007A280CDC214800782038C1B2204802783A
:101E90000078401C1E4B18701E4881540DE01B48F2
:101EA00002781B4801780078401C194B18701948BB
:101EB000425402E001201949087001F069FA21E05A
:101EC0001749206888421DD1164817490A680260E0
:101ED0004A68426089688160024614A1164800F091
:101EE00043FD1548FEF7CDF9C5B22A461249012037
:101EF00002F0AAFD0120114908700B220A4910487E
:101F0000FFF740FF70BD00000050004006000020B9
:101F100007000020320100201802002004000020E9
:101F2000004C00406401002082010020203E3E5B06
:101F300025735D0A0D2000009C0000200A0000208F
:101F4000D80100202DE9F84304460D4616461F46E9
:101F50004FF0000994F8390020285CD105B116B97A
:101F60000120BDE8F88300BF94F83800012801D1B2
:101F70000220F6E7012084F8380000BF0020E0636B
:101F8000212084F83900FFF76FF88146A684E684A3
:101F90002BE0E08C401EE084A068B0F5805F16D195
:101FA0004B46002280212046009700F0A5FC08B196
:101FB0000320D6E7A846B8F80000C0F3080021685F
:101FC0004860206908B9AD1C0FE06D1C0DE04B4660
:101FD000002280212046009700F08EFC08B10320EB
:101FE000BFE715F8010B21684860E08C0028D0D1CC
:101FF0004B46002240212046009700F07DFC08B1AE
:102000000320AEE7202084F8390000BF002084F8C8
:10201000380000BFA5E70220A3E7704700BFFEE736
:102020001FB50020009001900290039014481549BC
:1020300008604FF4803048600021124881600161DF
:1020400081610162C162104981620021C160012188
:10205000C1610021016301214161FEF77BFD08B1EF
:10206000FEF775FC022000900120019000200290F4
:1020700069460448FEF79CFC08B1FEF768FC1FBDEA
:1020800000210140900100200100000F00B587B041
:10209000142102A8FEF7EAF800BF0020019063486F
:1020A000006840F00400614908600846006800F0DC
:1020B0000400019000BF00BF00BF0020019008464F
:1020C000006840F0800008600846006800F080006A
:1020D000019000BF00BF00BF0020019008460068CB
:1020E00040F0010008600846006800F0010001901F
:1020F00000BF00BF00BF002001900846006840F00C
:10210000020008600846006800F00200019000BF6D
:1021100000BF00BF002001900846006840F00800A2
:1021200008600846006800F00800019000BF00BF8A
:10213000002240F663513E48FEF790FF00228021C6
:102140003B48FEF78BFF00224FF414713948FEF72D
:1021500085FF00224FF494613648FEF77FFF00228E
:102160004DF2C1713448FEF779FF01224021324817
:10217000FEF774FF40F2E34002900120039000203C
:102180000490059002A92A48FEF76CFE4FF4DE6029
:1021900002900120039000200490059002A9254898
:1021A000FEF760FE60200290012003900020049062
:1021B00002A92048FEF756FE0C200290032003904F
:1021C0000020049002A91B48FEF74CFE222002903A
:1021D0000120039000200490059002A91648FEF704
:1021E00041FE4FF40060029000200390049005909F
:1021F00002A90F48FEF736FE4FF4C04002900020BF
:1022000003900490059002A90948FEF72BFE4FF2B7
:10221000E17002900120039000200490059002A933
:102220000548FEF71FFE07B000BD00003038024031
:1022300000080240000002400004024010B50B48B4
:102240000B4908604FF4E130486000210848816084
:10225000C16001610C21416100218161C161FFF711
:10226000A1FC08B1FEF773FB10BD0000004C00405C
:10227000D801002010B50B480B4908604FF4E1303D
:102280004860002108488160C16001610C21416102
:1022900000218161C161FFF785FC08B1FEF757FBA2
:1022A00010BD0000005000401802002000BFFEE7F3
:1022B0007047000002480068C0F302207047000029
:1022C0000CED00E010B5002807DA0A07140E054AE5
:1022D00000F00F031B1FD45403E00A07130E024A39
:1022E000135410BD18ED00E000E400E070477047A3
:1022F00010B5FEF7BFFE10BD00B593B0342106A89F
:10230000FDF7B4FF142101A8FDF7B0FF00BF0020C6
:1023100000902648006840F0805024490860084634
:10232000006800F08050009000BF00BF00BF002098
:1023300000901F48006840F440401D49086008466E
:10234000006800F44040009000BF00BF01200690EC
:102350000004079002200C9041050D9104210E917C
:10236000B4210F91022110911191129106A8FFF74B
:102370000DF908B1FEF7EBFAFEF750FF08B1FEF7D2
:10238000E6FA0F20019002200290002003904FF403
:10239000A05004904FF480500590052101A8FEF74D
:1023A00083FF08B1FEF7D3FA13B000BD40380240F6
:1023B000007000401448006840F470001249086042
:1023C0001248006840F001001049086000200F49E1
:1023D000083108600D4800680D4908400B49086045
:1023E0000C48091D0860081F006820F48020091FA0
:1023F0000860002005490C3108604FF00060024978
:10240000803908607047000088ED00E00038024025
:10241000FFFFF6FE1030002410B50248FFF71CFB4A
:1024200010BD0000D801002010B50248FFF714FBD2
:1024300010BD00001802002070B50546AC6B0020EE
:10244000E085E0842046FFF7FBFA70BD0168C968AB
:1024500021F490710268D1600168496921F001019D
:1024600002685161202180F83A10704710B5044687
:102470002068C06820F040002168C860202084F8EF
:1024800039002046FFF7C9FD002010BD70B5044695
:1024900094F83A00222844D1A068B0F5805F13D1A7
:1024A000A56A206940B920684068C0F30800288008
:1024B000A06A801CA06219E020684068C0B2288031
:1024C000A06A401CA06211E0206938B92068406809
:1024D000C1B2A26A501CA062117007E02068406877
:1024E00000F07F01A26A501CA0621170E08D401EB6
:1024F00080B2E08598B92068C06820F490702168A7
:10250000C8602068406920F00100216848612020EF
:1025100084F83A002046FFF767FC002070BD0020D9
:10252000FCE70220FAE700002DE9F041044600250F
:102530002068056925F44055E06805432068056179
:102540002068C56849F20C6085432169A06808438A
:1025500061690843E169084305432068C560206854
:10256000456925F44075A069054320684561E06927
:10257000B0F5004F7ED1C4492068884203D0C349DA
:10258000206888425DD1FEF765FF00EBC00101EBDA
:10259000001061684900B0FBF1F06421B0FBF1F07C
:1025A0000601FEF757FF00EBC00101EB0010616868
:1025B0004900B0FBF1F7FEF74DFF00EBC00101EB66
:1025C000001061684900B0FBF1F06421B0FBF1F04C
:1025D00000EBC00101EB0010A7EB8000322101EB02
:1025E000C0006421B0FBF1F000F0F80006EB4006FB
:1025F000FEF730FF00EBC00101EB001061684900FD
:10260000B0FBF1F7FEF726FF00EBC00101EB001075
:1026100061684900B0FBF1F06421B0FBF1F000EB20
:10262000C00101EB0010A7EB8000322101EBC000DC
:102630006421B0FBF1F000F00700304421688860AD
:1026400020E1FEF7F7FE00EBC00101EB001061682E
:102650004900B0FBF1F06421B0FBF1F00601FEF798
:10266000E9FE00EBC00101EB001061684900B0FB1E
:10267000F1F700E045E0FEF7DDFE00EBC00101EB05
:10268000001061684900B0FBF1F06421B0FBF1F08B
:1026900000EBC00101EB0010A7EB8000322101EB41
:1026A000C0006421B0FBF1F000F0F80006EB40063A
:1026B000FEF7C0FE00EBC00101EB001061684900AD
:1026C000B0FBF1F7FEF7B6FE00EBC00101EB001026
:1026D00061684900B0FBF1F06421B0FBF1F000EB60
:1026E000C00101EB0010A7EB8000322101EBC0001C
:1026F0006421B0FBF1F000F00700304421688860ED
:10270000C0E061492068884203D06049206888425F
:102710005CD1FEF79FFE00EBC00101EB0010616889
:102720008900B0FBF1F6FEF795FE00EBC00101EB6E
:10273000001061688900B0FBF1F06421B0FBF1F09A
:1027400000EBC00101EB0010A6EB8000322101EB91
:1027500000106421B0FBF1F000F0F006FEF77AFE05
:1027600000EBC00101EB001061688900B0FBF1F0E3
:102770006421B0FBF1F006EB0016FEF76BFE00EBF8
:10278000C00101EB001061688900B0FBF1F7FEF7B2
:1027900061FE00EBC00101EB001061688900B0FB35
:1027A000F1F06421B0FBF1F000EBC00101EB00108F
:1027B000A7EB8000322101EB00106421B0FBF1F0A7
:1027C00000F00F003044216888605BE0FEF732FEC5
:1027D00000EBC00101EB001061688900B0FBF1F66D
:1027E000FEF728FE00EBC00101EB001061688900D4
:1027F000B0FBF1F06421B0FBF1F000EBC00101EBA4
:102800000010A6EB8000322101EB00106421B0FB28
:10281000F1F000F0F006FEF70DFE00EBC00101EB59
:10282000001061688900B0FBF1F06421B0FBF1F0A9
:1028300006EB0016FEF7FEFD00EBC00101EB0010F9
:1028400061688900B0FBF1F7FEF7F4FD00EBC00111
:1028500001EB001061688900B0FBF1F06421B0FB6E
:10286000F1F000EBC00101EB0010A7EB800032217A
:1028700001EB00106421B0FBF1F000F00F003044D8
:1028800021688860BDE8F08100100140001401401B
:10289000014691F8390021282CD18868B0F5805F75
:1028A0000FD10A6A1088C0F308000B6858600869E5
:1028B00018B9086A801C086209E0086A401C0862AE
:1028C00005E00B6A581C086218780B685860C88CC1
:1028D000401E80B2C88458B90868C06820F08000E3
:1028E0000B68D8600868C06840F040000B68D8608A
:1028F000002070470220FCE72DE9F04104460D4618
:1029000017469846069E21E0701CF8B12EB1FEF7DE
:10291000ABFBA0EB0800B04218D92068C06820F4D7
:10292000D0702168C8602068406920F001002168EB
:102930004861202084F8390084F83A0000BF002064
:1029400084F8380000BF0320BDE8F08120680068EB
:102950002840A84201D1012000E00020B842D3D095
:102960000020F1E700BFFEE70FB4084B10B504A943
:1029700002AA039800F0DEF8044602A9002000F045
:1029800070FC204610BC5DF814FB000063320008A8
:1029900002E008C8121F08C1002AFAD17047704728
:1029A000002001E001C1121F002AFBD17047000086
:1029B0002DE9FF5F82B00021DDE90430020DDDF872
:1029C00040B0034318D044F61050A2F2FF32424305
:1029D0001514119801281FD0A5EB0B00401C5FEACD
:1029E000000A4FF000064E4FDFF83891B0465046CF
:1029F00015D5CAF1000413E0119801244AA3012857
:102A000001D16FEA0B010298119AC0E90031C0E9C7
:102A1000024206B0BDE8F09FCBF10000DFE70446BC
:102A20000021404A491842EB0450CDE9001012E061
:102A3000E00707D032463B4640464946FDF72FFDAA
:102A40008046894632463B4610461946FDF727FD2B
:102A500006460F466410002CEAD1DDE90401DDE9E9
:102A60000023BAF1000F06DAFDF719FD42464B4686
:102A7000FDF715FD05E0FDF784FD42464B46FDF7E9
:102A800080FD04460E460022284BFDF701FE03D8C8
:102A90004FF0FF30014607E00022254B204631462B
:102AA000FDF756FCFDF7DCFD102409E0002C0ADBE5
:102AB0000A220023FDF7A2FB039B30321A55641E45
:102AC00050EA0102F2D1641C039AC4F111031444C8
:102AD000119A012A03D0012208430DD10AE00843CC
:102AE00004D000204FF0110B119072E7A3EB0B05FF
:102AF0006D1E0DE05B4504DD4FF0000205F10105A0
:102B000004E003DA4FF00002A5F10105002AECD041
:102B100002981199C0E90231C0E9004579E7000047
:102B2000000014400000F03F300000000000F043BF
:102B30000000E03F2DE9FF4F95B09B4689460646D1
:102B400000250FE2252877D100242746F84A0121E5
:102B5000059400E0044316F8013F203B01FA03F01E
:102B60001042F7D130782A2811D06FF02F03307837
:102B7000A0F13002092A16D8059A44F0020402EBAB
:102B8000820203EB42021044761C0590EFE759F8ED
:102B9000042B0592002A03DA504244F400540590B5
:102BA00044F00204761C30782E2816D116F8010F56
:102BB00044F004042A280DD06FF02F023078A0F1E1
:102BC0003003092B09D807EB870302EB4303C7182F
:102BD000761CF3E759F8047B761C30786C280FD00C
:102BE00006DC4C2817D068280DD06A2814D104E0E0
:102BF000742810D07A280FD10DE044F400140AE0B4
:102C000044F4801401E044F440147278824202D10A
:102C100004F58014761C761C307866280BD013DC03
:102C2000582877D009DC002875D04528F6D04628EA
:102C3000F4D047281AD19DE118E0632835D06428E4
:102C400079D0652812D195E1702873D008DC672807
:102C5000F1D069286FD06E280DD06F2806D1B5E06D
:102C600073282CD0752875D0782874D05A461799B7
:102C700090476D1C75E1C4F30250022809D0032867
:102C80000DD0D9F8001004280DD00D6009F1040909
:102C900067E1D9F80010EA17C1E90052F6E7D9F860
:102CA00000100D80F2E70D70F0E719F8041B8DF8A5
:102CB000001000208DF80100EA46012003E059F8D9
:102CC00004AB4FF0FF3061074FF0000102D40DE07C
:102CD00008F101018846B9420FDA8045F8DB1AF89D
:102CE00008100029F4D108E008F10101884681426A
:102CF000FADB1AF808100029F6D105985B46A0EB1C
:102D0000080721463846179A00F094FA284400EB49
:102D1000080507E04DE029E10DE01AF8010B5A46DD
:102D200017999047B8F10108F7D25B46214638461B
:102D3000179A13E142E00A220092C4F302524FF0C4
:102D4000000A022A08D059F804CB032A4FEAEC7192
:102D50000AD00DE029E02AE009F1070121F007027D
:102D6000F2E802C1914609E00FFA8CFC4FEAEC71DF
:102D7000042A03D14FFA8CFC4FEAEC71002907DAE0
:102D80000A460021DCF1000C61EB02012D2202E079
:102D9000220504D52B228DF80420012203E0E2074E
:102DA00001D02022F7E7904659E00A2102E01022E4
:102DB0000DE010214FF0000A00910BE010224FF0BF
:102DC000000A44F004040827009203E008224FF0B0
:102DD000000A0092C4F30252022A05D059F804CB2B
:102DE0000021032A08D009E009F1070121F00702B8
:102DF000F2E802C1914605E01FFA8CFC042A01D1D9
:102E00000CF0FF0C4FF00008220728D5702806D0E0
:102E1000009B83F0100353EA0A0305D00EE0402222
:102E20008DF80420012208E05CEA010206D030227D
:102E30008DF804208DF8050002229046009B83F057
:102E4000080353EA0A030AD15CEA010201D16207CE
:102E500005D530228DF804204FF001087F1E582838
:102E600004D034A003900EA802900DE036A0F9E73C
:102E700053466046009AFDF7C1F984460398825C88
:102E80000298401E029002705CEA0100F0D10298A4
:102E900006A9081A00F1200A600702D524F480343C
:102EA00000E00127574502DDA7EB0A0000E0002003
:102EB00000EB0A01009005984144401A0590E00398
:102EC00006D45B462146179A059800F0B3F90544ED
:102ED000002706E001A85A46C05D179990476D1C6F
:102EE0007F1C4745F6DBE0030CD55B462146179A6D
:102EF000059800F09FF9054404E030205A461799E0
:102F000090476D1C0099481E00900029F5DC08E0F0
:102F1000029802995A460078491C029117999047E5
:102F20006D1CBAF10001AAF1010AF1DC65E10000B3
:102F3000092801003031323334353637383961628F
:102F40006364656600000000303132333435363753
:102F500038394142434445460000000000F058F92A
:102F60000544761C307800287FF4ECAD19B0284673
:102F7000BDE8F08F620700D4062709F1070222F0AE
:102F8000070CFCE80223E14603F000485FEA080C66
:102F900002D00FF2702C0DE05FEA045C02D50FF254
:102FA000682C07E05FEAC47C02D00FF2602C01E0DD
:102FB000AFF2700C4FF0FF3823F00043CDF850C053
:102FC00065280CD006DC452809D046281DD04728A6
:102FD0003DD13DE0662818D067287ED138E0002139
:102FE000112F01DB112000E0781CCDE9000106A9BA
:102FF0000EA8FFF7DDFCDDE90F010E9A0391002119
:10300000009207F1010A04914DE04FF00040009753
:10301000CDE9011006A90EA8FFF7CAFCDDE90F02F1
:1030200003920E9B11990022DDF80CA000930492EC
:1030300011B9791C00EB010AB7EB0A0004D4C0F106
:10304000FF3007F1010A0490AAEB0700019044E069
:10305000012F00DA01270021112F01DD112000E0EE
:103060003846CDE9000106A90EA8FFF7A1FCDDE96D
:103070000F010E9A0391002104910092BA46210794
:103080000CD40399514500DA8A46BAF1010F05DDE7
:10309000009AAAF10101515C302908D0B84202DA45
:1030A00010F1040F06DA0121CDE9011015E0AAF1B3
:1030B0000101E9E7002805DC049901440491AAEB29
:1030C000000102E0411C514500DD8A460499401A86
:1030D000401C01904FF000400290200704D401985A
:1030E000504501DBCDF8048000208DF84F00029898
:1030F0000DF14F07B0F1004F25D02B200E90029814
:103100004FF0020800280CDA404202902D200E9069
:1031100007E00A210298FDF7E6F83031029007F83F
:10312000011DB8F10001A8F10108F2DC02980028A5
:10313000EFD1791E0E980870307800F0200040F032
:10314000450007F8020D12A8C01B00F107081498EB
:10315000007800B1012000EB0A01019801EBE07159
:1031600005984144401A401E0590E00306D45B4692
:103170002146179A059800F05DF8054414980078E8
:1031800018B15A46179990476D1CE00324D55B4649
:103190002146179A059800F04DF805441CE0049864
:1031A000002807DBDDE90301884203DD0098405C6D
:1031B000179901E0179930205A469047049805F175
:1031C0000105401C04900198401E019004D12E205E
:1031D0005A46179990476D1CBAF10001AAF1010AED
:1031E000DDDC05E017F8010B5A46179990476D1C76
:1031F000B8F10001A8F10108F4DC5B462146179AFA
:103200000598ABE62D0000002B0000002000000018
:103210002DE9F041044600251E461746880404D4D3
:1032200005E039462020B0476D1C641EF9D52846BC
:10323000BDE8F0812DE9F041044600251E46904688
:10324000C80301D5302700E02027880404D505E015
:1032500041463846B0476D1C641EF9D52846BDE886
:10326000F0810A68531C0B601070704710B5002283
:1032700040211348FDF7F2FE002202211048FDF71D
:10328000EDFE0221012000F07DFA012251020C48DE
:10329000FDF7E4FE0221084600F074FA09480078C0
:1032A00001280CD108A10E48FFF75EFB0C48FCF783
:1032B000E8FFC4B222460A49012001F0C5FB10BD57
:1032C00000040240090000202072657365742073B9
:1032D0006574757020646F6E650D0A200000000033
:1032E0009C00002070B50446012C1FD101228102F0
:1032F0001C48FDF7B3FE012251031A48FDF7AEFE4C
:103300000121084600F03EFA17480078012828D12C
:1033100016A11A48FFF728FB1848FCF7B2FFC5B200
:103320002A461649012001F08FFB1AE000224FF4D3
:1033300080610C48FDF792FE0221012000F022FA84
:103340000948007801280CD10DA10C48FFF70CFBAF
:103350000A48FCF796FFC5B22A460849012001F049
:1033600073FB70BD00040240090000204455522048
:10337000504F574552204F4E0D0A00009C00002030
:1033800044555220504F574552204F46460D0A0093
:1033900010B50548FEF755FB202804D1012203494A
:1033A0000148FEF7EFFC10BD1802002006000020C7
:1033B00010B50446012C09D1012201030948FDF78B
:1033C0004DFE0121022000F0DDF90AE04CB9002297
:1033D0004FF480510348FDF741FE0221084600F0FA
:1033E000D1F910BD0004024070B506460024002546
:1033F000304600F0B9FB06463349701CFCF748FF25
:1034000000BF0DE02046641C2F490A5C28466D1C55
:1034100006F133010A5486F84750142D00D10FE00D
:103420002948005D20280BD02748005D0D2807D0D3
:103430002548005D0D2803D02348005D0028E1D118
:1034400000BF641C00250DE02046641C1E490A5C78
:1034500028466D1C06F148010A5486F852500A2D80
:1034600000D10BE01848005D202807D01648005D09
:103470000D2803D01448005D0028E5D100BF641C6E
:1034800000250DE02046641C0F490A5C28466D1C8F
:1034900006F153010A5486F85D500A2D00D10BE065
:1034A0000948005D202807D00748005D0D2803D09B
:1034B0000548005D0028E5D100BF32210248FCF735
:1034C000D5FE304670BD0000320100202DE9F041EC
:1034D0002DED0C8B86B0804600F004F900249FEDA2
:1034E000620AB0EE409A9FED610AF0EE409A9FEDBD
:1034F000600AB0EE408A9FED5E0A10EE106AB2EEEE
:10350000040AB0EE40AA9FED5A0AF0EE408A59A193
:103510005948FFF729FA5848FCF7B3FEC7B23A46B4
:103520005549012001F090FA6420FDF787FC53A172
:103530005148FFF719FA5048FCF7A3FEC7B23A46C4
:103540004D49012001F080FA012479E0022C05D0D8
:10355000042C03D0052C01D0102C00D16EE02046A5
:1035600000F022FD0320FDF7F3F9054600EE105AA6
:10357000B8EE400A20EE090AB0EE408A9FED410AFB
:10358000C8EE000AB0EE608A39EEC80AF0EE408A52
:10359000F5EEC08AF1EE10FA06DD28EE0A0AC0EE5A
:1035A000280A10EE906A03E09FED310A10EE106ACF
:1035B0003046FCF785FE41EC1B0B53EC1B2B32A174
:1035C0002D48FFF7D1F92C48FCF75BFEC7B23A460D
:1035D0002949012001F038FA2D480078012828D126
:1035E0003046FCF76DFE41EC1B0B18EE900AFCF721
:1035F00067FE41EC1C0B18EE100AFCF761FE41EC73
:103600001D0B8DED04BB8DED02CB8DED00DB601E3F
:10361000204951F820202B461FA11748FFF7A4F995
:103620001548FCF72EFEC7B23A461349012001F0B7
:103630000BFA9FED0F0A10EE106A00BF601CC4B2B7
:103640001E2C83DD23A10C48FFF78EF90A48FCF7F6
:1036500018FEC7B23A460849012001F0F5F906B054
:10366000BDEC0C8BBDE8F08133335340CDCC4C3FE7
:10367000000000000D0A00009C000020595F494036
:10368000000000000000804520252E32662C00003E
:10369000090000201C00002025732D7C4164635626
:1036A000616C2D2564207C6E6577566F6C742D25BA
:1036B00066207C766F6C745F646966662D25667C17
:1036C000696D704C6F772D252E3266204B4F484D1B
:1036D0000A0D0000494D50205245414420444F4EB0
:1036E000450D0A0010B5002240211748FDF7B6FC31
:1036F000002220211548FDF7B1FC0122802112484B
:10370000FDF7ACFC00224FF480610F48FDF7A6FCEA
:10371000012202210C48FDF7A1FC012251020A48B6
:10372000FDF79CFC0A48007801280CD109A10E483D
:10373000FFF71AF90C48FCF7A4FDC4B222460A4967
:10374000012001F081F910BD000402400008024090
:103750000900002020696D70207365747570206405
:103760006F6E650D0A2000009C00002010B520201F
:1037700000F0BCF804465E2000F0B8F82060204657
:1037800010BD000070B505460C46012D15D1012C69
:1037900004D100221548FDF761FC26E0022C05D17A
:1037A000012211461148FDF759FC1EE0032C1CD1E3
:1037B00001210E48FDF74EFC17E0022D15D1012C1A
:1037C00005D1002202210948FDF748FC0DE0022C3A
:1037D00005D1012202210548FDF740FC05E0032C3C
:1037E00003D102210148FDF735FC70BD00080240FD
:1037F000FDF74CFCFEF780FDFEF748FCFEF73AFDB6
:10380000FEF71CFDFEF70CFC0024FFF7AFFF04469B
:1038100024480068401C23490246086022A12F4822
:10382000FFF7A2F82D48FCF72CFDC5B22A462B491C
:10383000012001F009F902210120FFF7A3FF022175
:103840000846FFF79FFF2CE025480078012821D18A
:10385000206800F089F920602068FFF7C5FD20602E
:1038600000201F4908701F490870204600F084F9A5
:103870000446206800F078F920601BA11748FFF784
:1038800073F81648FCF7FDFCC5B22A46134901201F
:1038900001F0DAF80121204600F0D2FF0446FFF7DC
:1038A00077FDD1E7000000200A0D537465703A20BF
:1038B000253564207C3D3D3D3D3D3D3D3D3D3D59F3
:1038C000505A5F5054535F56312E30203D3D3D3DA0
:1038D0003D3D3D3D3D3D7C0A0D0000009C0000202B
:1038E00004000020070000200A0D0000F0B50B3096
:1038F000154D20F007010024144A0FE003688B42A5
:103900000BD38B4205D95E1A43184768C3E9006799
:1039100000E04368136002C004E0021D1068002844
:10392000ECD12046002802D1286808B10020F0BD63
:10393000064A07481060074A121A22F00702C0E937
:10394000002401202860D7E7980000209400002080
:103950005C0200205804002000BF00BF00BF00BF71
:1039600000BFBFF34F8F00BF00BF00BF0948006812
:1039700000F4E06008490843001D0649086000BFE4
:1039800000BF00BFBFF34F8F00BF00BF00BF00BF2D
:1039900000BFFDE70CED00E00000FA0530B52DEDAD
:1039A000048B85B001F044F90024002008EE900A51
:1039B0009FED560AB0EE408A55A15648FEF7D4FF57
:1039C0005448FCF75EFCC5B22A465249012001F07A
:1039D0003BF86420FDF732FA4FA14E48FEF7C4FFD2
:1039E0004C48FCF74EFCC5B22A464A49012001F07A
:1039F0002BF8012476E0012C1BD0022C19D0132CBB
:103A000017D0142C15D0152C13D0162C11D0172C20
:103A10000FD0182C0DD0192C0BD01B2C09D01C2C1E
:103A200007D01D2C05D01E2C03D01F2C01D0202C1C
:103A300000D155E0204600F0B7FA0220FCF788FFDD
:103A400008EE900AB8EE680ADFED350A20EE200A8B
:103A5000B0EE408A9FED330AC8EE000AB0EE608AED
:103A6000B0EE000A28EE000AB0EE408A18EE100A06
:103A7000FCF726FC41EC190B53EC192B2AA1254825
:103A8000FEF772FF2348FCF7FCFBC5B22A4621492A
:103A9000012000F0D9FF2648007801281BD118EE3C
:103AA000100AFCF70DFC41EC190B8DED029BCDEDDE
:103AB000008A601E1F4951F8203022461EA1154879
:103AC000FEF752FF1348FCF7DCFBC5B22A4611494A
:103AD000012000F0B9FF9FED0D0AB0EE408A00BF53
:103AE000601CC4B21E2C86DD1BA10A48FEF73CFFF9
:103AF0000848FCF7C6FBC5B22A460649012000F07B
:103B0000A3FF05B0BDEC048B30BD00000000000039
:103B10000D0A00009C000020595F565F41400000E4
:103B20003333534000008045252E32662C000000C0
:103B3000090000201C000020735B25645D2D2573A7
:103B40002D7C41646356616C2D25647C252E326684
:103B5000766F6C740A0D0000564F4C20524541445C
:103B600020444F4E450D0A0010B504465E21204604
:103B7000FCF77CFB204610BD70B50446206890F829
:103B8000470000281EDD216891F8472001F133002D
:103B9000DAA1FCF786FB00282DD1216891F852208C
:103BA00001F14800D6A1FCF77CFB60B9216891F8CF
:103BB0005D2001F15300D4A1FCF773FB002801D173
:103BC000FFF790FD98E1216891F8522001F148003B
:103BD000CEA1FCF766FB0028F4D1216891F85D20A6
:103BE00001F15300C8A1FCF75CFB0028EAD1204694
:103BF000FFF76CFC80E1216891F8472001F1330068
:103C0000C4A1FCF74EFBB0B9216891F8522001F134
:103C10004800BBA1FCF745FB0028D3D1216891F8EF
:103C20005D2001F15300B8A1FCF73BFB0028C9D18E
:103C300000F0FEFF60E1216891F8472001F13300B8
:103C4000B6A1FCF72EFBB0B9216891F8522001F122
:103C50004800B3A1FCF725FB0028B3D1216891F8F7
:103C60005D2001F15300A8A1FCF71BFB0028A9D19E
:103C700000F0F8FE40E1216891F8472001F133009F
:103C8000A8A1FCF70EFBB0B9216891F8522001F110
:103C90004800A3A1FCF705FB002893D1216891F807
:103CA0005D2001F1530098A1FCF7FBFA002889D1AF
:103CB000FFF774FE20E1216891F8472001F13300FD
:103CC00099A1FCF7EEFA20BB216891F8522001F18E
:103CD000480096A1FCF7E5FA00288BD1216891F8FD
:103CE0005D2001F1530093A1FCF7DBFA18B9012024
:103CF000FFF7F8FA00E1216891F85D2001F1530027
:103D00008DA1FCF7CEFA002894D10220FFF7EAFA41
:103D1000F2E0216891F8472001F1330087A1FCF718
:103D2000C0FA20BB216891F8522001F148007FA120
:103D3000FCF7B7FA00289DD1216891F85D2001F1C8
:103D400053007CA1FCF7ADFA18B90120FCF7E8FD9F
:103D5000D2E0216891F85D2001F1530076A1FCF7D3
:103D6000A0FA002886D10220FCF7DAFDC4E0216821
:103D700091F8472001F1330071A1FCF792FA20BBC2
:103D8000216891F8522001F148006FA1FCF789FAEF
:103D900000288FD1216891F85D2001F1530065A1C1
:103DA000FCF77FFA002885D101206949087069A1D4
:103DB0006C48FEF7D9FD6B48FCF763FAC5B22A469A
:103DC0006849012000F040FE96E0216891F8472004
:103DD00001F1330064A1FCF764FA20BB216891F87B
:103DE000522001F1480058A1FCF75BFA00288FD15E
:103DF000216891F85D2001F153004EA1FCF751FAC2
:103E0000002879D102205249087058A15548FEF780
:103E1000ABFD5448FCF735FAC5B22A46514901209A
:103E200000F012FE68E0216891F8472001F13300AC
:103E300052A1FCF736FAB0B9216891F8522001F18D
:103E4000480031A1FCF72DFA002855D1216891F8DE
:103E50005D2001F153004BA1FCF723FA00284BD160
:103E6000FFF704FA48E0216891F8472001F1330098
:103E700046A1FCF716FA10BB216891F8522001F117
:103E8000480043A1FCF70DFAB0BB216891F85D2012
:103E900001F1530027A1FCF704FA18B90120FFF73C
:103EA00087FA29E0216891F85D2001F1530022A1F1
:103EB000FCF7F7F900BB0020FFF77AFA1CE0216855
:103EC00091F8472001F1330033A1FCF7EAF998B9E2
:103ED000216891F8522001F1480031A1FCF7E1F985
:103EE00050B9216891F85D2001F153002DA1FCF734
:103EF000D8F908B9FFF730FD204670BD494D500094
:103F00005345545550000000414C4C00524541442B
:103F100000000000564F4C54000000005052450075
:103F2000564F4C00504F530044555400504F574586
:103F3000520000004F4E00004F46460042415400E0
:103F40004445425547000000464C414700000000F0
:103F5000090000204445425547204D4F4445204F1D
:103F60004E0A0D009C00002041505000415050204E
:103F70004D4F4445204F4E0A0D0000005245534519
:103F800054000000535441544500000045444C0087
:103F90004D4F444500000000534F465400000000C0
:103FA000525354004D43550010B50446212C79D28C
:103FB000DFE804F078113456799ABCF7F5F4F3F29F
:103FC000F1F0EFEEEDECEBEAE9E8E7E6E5E4E3E259
:103FD000E1E0DFDEDD0000224FF48061FE48FDF706
:103FE0003DF800224FF48061FC48FDF737F80022CD
:103FF0004FF40071F948FDF731F800224FF40061E9
:10400000F548FDF72BF800224FF48041F448FDF706
:1040100025F84FF4FA70FCF711FF0EE2012291022D
:10402000ED48FDF71BF800224FF48061EB48FDF7E7
:1040300015F800224FF40071E848FDF70FF8002250
:104040004FF40061E448FDF709F800224FF4804185
:10405000E348FDF703F84FF47A70FCF7EFFEE6E370
:1040600000224FF48061DC48FCF7F8FF0122910246
:10407000DA48FCF7F3FF00224FF40071D748FCF751
:10408000EDFF00224FF40061D348FCF7E7FF002268
:104090004FF48041D248FCF7E1FF4FF4FA60FCF79F
:1040A000CDFEC4E3C2E301229102CB48FCF7D6FF68
:1040B00001229102C948FCF7D1FF00224FF40071A0
:1040C000C648FCF7CBFF00224FF40061C248FCF762
:1040D000C5FF00224FF48041C148FCF7BFFF4FF4F9
:1040E000FA70FCF7ABFEA2E300224FF48061BA48FD
:1040F000FCF7B4FF00224FF48061B848FCF7AEFF34
:1041000001225102B548FCF7A9FF00224FF40061DB
:10411000B148FCF7A3FF00224FF48041B048FCF700
:104120009DFF4FF4FA70FCF789FE80E301229102B3
:10413000A948FCF793FF00224FF48061A748FCF7E1
:104140008DFF01225102A548FCF788FF00224FF4A1
:104150000061A148FCF782FF00224FF48041A04893
:10416000FCF77CFF4FF47A70FCF768FE5FE339E3FD
:104170001AE3FBE2DBE2BCE29CE27CE25BE23CE2D3
:104180001CE2FCE1DBE1BBE19AE179E156E136E1D9
:104190000DE1ECE0CAE0A9E087E065E042E021E063
:1041A000FFE700224FF480618B48FCF757FF0122A4
:1041B00091028A48FCF752FF012251028748FCF71E
:1041C0004DFF00224FF400618348FCF747FF0022B7
:1041D0004FF480418248FCF741FF4FF47A70FCF7BE
:1041E0002DFE24E3012291027B48FCF737FF0122D8
:1041F00091027A48FCF732FF012251027748FCF71E
:104200002DFF00224FF400617348FCF727FF0022C6
:104210004FF480417248FCF721FF4FF42F70FCF7F8
:104220000DFE04E300224FF480616B48FCF716FF9B
:1042300000224FF480616948FCF710FF00224FF420
:1042400000716648FCF70AFF0122D1026248FCF7C0
:1042500005FF00224FF480416148FCF7FFFE4FF458
:10426000FA70FCF7EBFDE2E2012291025A48FCF7FA
:10427000F5FE00224FF480615848FCF7EFFE002263
:104280004FF400715548FCF7E9FE0122D102524873
:10429000FCF7E4FE00224FF480415148FCF7DEFEBB
:1042A0004FF4FA70FCF7CAFDC1E200224FF48061BE
:1042B0004948FCF7D3FE012291024848FCF7CEFEA4
:1042C00000224FF400714548FCF7C8FE0122D102DC
:1042D0004148FCF7C3FE00224FF480414048FCF700
:1042E000BDFE4FF47A70FCF7A9FDA0E20122910215
:1042F0003948FCF7B3FE012291023848FCF7AEFEC4
:1043000000224FF400713548FCF7A8FE0122D102CB
:104310003148FCF7A3FE00224FF480413048FCF7FF
:104320009DFE41F28830FCF789FD80E200224FF4C7
:1043300080612948FCF792FE00224FF480612748F3
:10434000FCF78CFE012251022448FCF787FE012273
:10435000D1022148FCF782FE00224FF48041204820
:10436000FCF77CFE4FF47A70FCF768FD5FE20122F7
:1043700091021948FCF772FE00224FF48061174841
:10438000FCF76CFE012251021448FCF767FE012283
:10439000D1021148FCF762FE00224FF48041104820
:1043A000FCF75CFE4FF4FA70FCF748FD3FE2002298
:1043B0004FF480610848FCF751FE01229102074842
:1043C000FCF74CFE012251020448FCF747FE012293
:1043D000D102014806E0000000080240000002404F
:1043E00000040240FCF73AFE00224FF48041FE48F0
:1043F000FCF734FE4FF47A70FCF720FD17E201223F
:104400009102FA48FCF72AFE01229102F848FCF7D3
:1044100025FE01225102F648FCF720FE0122D102BE
:10442000F248FCF71BFE00224FF48041EE48FCF7F7
:1044300015FE4FF4FA70FCF701FDF8E100224FF48D
:104440008061EA48FCF70AFE00224FF48061E848E8
:10445000FCF704FE00224FF40071E548FCF7FEFD76
:1044600000224FF40061E148FCF7F8FD01229103BE
:10447000DD48FCF7F3FD4FF4FA70FCF7DFFCD6E102
:1044800001229102D948FCF7E9FD00224FF4806136
:10449000D748FCF7E3FD00224FF40071D448FCF745
:1044A000DDFD00224FF40061D048FCF7D7FD01226A
:1044B0009103CD48FCF7D2FDC820FCF7BFFCB6E164
:1044C00000224FF48061C948FCF7C8FD0122910227
:1044D000C748FCF7C3FD00224FF40071C448FCF745
:1044E000BDFD00224FF40061C048FCF7B7FD01227A
:1044F0009103BD48FCF7B2FDC820FCF79FFC96E194
:1045000001229102B948FCF7A9FD01229102B848A5
:10451000FCF7A4FD00224FF40071B548FCF79EFDA6
:1045200000224FF40061B148FCF798FD012291038D
:10453000AD48FCF793FDC820FCF780FC77E1002232
:104540004FF48061A948FCF789FD00224FF4806197
:10455000A748FCF783FD01225102A548FCF77EFD28
:1045600000224FF40061A148FCF778FD012291037D
:104570009D48FCF773FDC820FCF760FC57E1012261
:1045800091029A48FCF76AFD00224FF48061984836
:10459000FCF764FD012251029548FCF75FFD002203
:1045A0004FF400619148FCF759FD012291038E48B8
:1045B000FCF754FDC820FCF741FC38E100224FF421
:1045C00080618A48FCF74AFD012291028848FCF785
:1045D00045FD012251028648FCF740FD00224FF4C0
:1045E00000618248FCF73AFD012291037E48FCF706
:1045F00035FDC820FCF722FC19E1012291027B481D
:10460000FCF72CFD012291027948FCF727FD0122DD
:1046100051027748FCF722FD00224FF400617348F5
:10462000FCF71CFD012291036F48FCF717FDC82021
:10463000FCF704FCFBE000224FF480616B48FCF7C0
:104640000DFD00224FF480616948FCF707FD002250
:104650004FF400716648FCF701FD0122D102634866
:10466000FCF7FCFC012291035F48FCF7F7FCC82033
:10467000FCF7E4FBDBE0012291025C48FCF7EEFC76
:1046800000224FF480615A48FCF7E8FC00224FF406
:1046900000715748FCF7E2FC0122D1025348FCF7B5
:1046A000DDFC012291035048FCF7D8FCC820FCF740
:1046B000C5FBBCE000224FF480614C48FCF7CEFC07
:1046C000012291024A48FCF7C9FC00224FF4007114
:1046D0004748FCF7C3FC0122D1024448FCF7BEFC6A
:1046E000012291034048FCF7B9FCC820FCF7A6FB67
:1046F0009DE0012291023D48FCF7B0FC01229102AD
:104700003B48FCF7ABFC00224FF400713848FCF743
:10471000A5FC0122D1023548FCF7A0FC012291033F
:104720003148FCF79BFCC820FCF788FB7FE00022A7
:104730004FF480612D48FCF791FC00224FF480611A
:104740002B48FCF78BFC012251022948FCF786FC20
:104750000122D1022548FCF781FC01229103224865
:10476000FCF77CFCC820FCF769FB60E001229102A9
:104770001E48FCF773FC00224FF480611C48FCF7D4
:104780006DFC012251021A48FCF768FC0122D1029B
:104790001648FCF763FC012291031348FCF75EFC0A
:1047A000C820FCF74BFB42E000224FF480610F4829
:1047B000FCF754FC012291020D48FCF74FFC01224A
:1047C00051020B48FCF74AFC0122D1020748FCF7D2
:1047D00045FC012291030448FCF740FCC820FCF78B
:1047E0002DFB00BF012205E000040240000802404A
:1047F0000000024091020F48FCF730FC01229102B8
:104800000D48FCF72BFC012251020B48FCF726FC5B
:104810000122D1020748FCF721FC0122910307483D
:10482000FCF71CFCC820FCF709FB00E000BF00BF40
:1048300010BD0000000802400000024000040240D9
:1048400070B504460E464F48006800F4005000283A
:104850004AD14D49087008E04FF47A70FCF7EEFA3F
:1048600049480078401C484908704648006800F4F0
:1048700000500028F0D044480078012811DD42485B
:10488000007804280DDA41A14948FEF76DF8484840
:10489000FBF7F7FCC5B22A464549012000F0D4F8E1
:1048A00022E039480078022811DD374800780F28C7
:1048B0000DDA40A13E48FEF757F83D48FBF7E1FC12
:1048C000C5B22A463A49012000F0BEF80CE042A1E8
:1048D0003748FEF749F83648FBF7D3FCC5B22A46FD
:1048E0003349012000F0B0F82648006800F4804009
:1048F000002844D12449087008E04FF47A70FCF78E
:104900009DFA21480078401C1F4908701D48006826
:1049100000F480400028F0D01B480078022815DD04
:1049200019480078042811DA31A12148FEF71CF853
:104930001F48FBF7A6FCC5B22A461D49012000F01E
:1049400083F801210220FEF71DFF18E00E480078D1
:10495000052814DD0C480078122810DA02210846D8
:10496000FEF710FF2DA11248FDF7FEFF1048FBF7E0
:1049700088FCC5B22A460E49012000F065F82046A1
:1049800070BD00001008024005000020535732207F
:10499000627574746F6E2020707265737365642025
:1049A000666F7220707772206F46460A0D00000015
:1049B0009C00002053573220627574746F6E202063
:1049C0007072657373656420666F722070777220F1
:1049D0004F4E0A0D0000000020204E6F20616374CE
:1049E000696F6E20706572666F726D200A0D00002F
:1049F000202053573320627574746F6E20207072BC
:104A0000657373656420666F722050726F67204D06
:104A10006F6465206F6E0A0D00000000205357334D
:104A200020627574746F6E20207072657373656494
:104A300020666F72204E6F726D616C204D6F6465E1
:104A4000206F6E0A0D00000070B506460D46144634
:104A5000631D224629460248FDF774FA70BD000026
:104A60001802002030B52DED048B85B000F0E0F881
:104A70000024002008EE900A9FED560AB0EE408A0E
:104A800055A15648FDF770FF5448FBF7FAFBC5B235
:104A90002A4652490120FFF7D7FF6420FCF7CEF9E0
:104AA0004FA14E48FDF760FF4C48FBF7EAFBC5B24B
:104AB0002A464A490120FFF7C7FF012476E0012C6E
:104AC0001BD0022C19D0132C17D0142C15D0152C58
:104AD00013D0162C11D0172C0FD0182C0DD0192C48
:104AE0000BD01B2C09D01C2C07D01D2C05D01E2C44
:104AF00003D01F2C01D0202C00D155E02046FFF719
:104B000053FA0220FBF724FF08EE900AB8EE680A79
:104B1000DFED350A20EE200AB0EE408A9FED330A21
:104B2000C8EE000AB0EE608AB0EE000A28EE000A75
:104B3000B0EE408A18EE100AFBF7C2FB41EC190BED
:104B400053EC192B2AA12548FDF70EFF2348FBF74C
:104B500098FBC5B22A4621490120FFF775FF264878
:104B6000007801281BD118EE100AFBF7A9FB41ECD5
:104B7000190B8DED029BCDED008A601E1F4951F887
:104B8000203022461EA11548FDF7EEFE1348FBF724
:104B900078FBC5B22A4611490120FFF755FF9FED6A
:104BA0000D0AB0EE408A00BF601CC4B21E2C86DD28
:104BB0001BA10A48FDF7D8FE0848FBF762FBC5B207
:104BC0002A4606490120FFF73FFF05B0BDEC048BE4
:104BD00030BD0000000000000D0A00009C00002015
:104BE000595F565F42400000333353400000804518
:104BF000252E32662C000000090000201C00002039
:104C0000735B25645D2D25732D7C41646356616C57
:104C10002D25647C252E3266766F6C740A0D00009B
:104C2000564F4C205245414420444F4E450D0A00FA
:104C300010B5012240211948FCF710FA0022022188
:104C40001648FCF70BFA01210846FEF79BFD0122EE
:104C500020211348FCF702FA002280210F48FCF7BC
:104C6000FDF9012251020D48FCF7F8F901229102E9
:104C70000A48FCF7F3F90B48007801280CD10AA187
:104C80000E48FDF771FE0D48FBF7FBFAC4B2224651
:104C90000A490120FFF7D8FE10BD000000040240C1
:104CA000000802400900002020766F6C20736574B4
:104CB000757020646F6E650D0A2000009C00002056
:104CC00000000000000000000102030406070809BC
:104CD0000000000001020304565245475F4C313189
:104CE0005F3150382854503630290000565245471D
:104CF0005F53345F31503935285450373029000024
:104D0000565245475F4C395F315032323528545046
:104D100031323129000000004455545F564F4C5445
:104D20005F494E2854503531290000004455545FE6
:104D3000564F4C545F494E5F564255535F35562887
:104D40005450353129000000565245475F53335FB8
:104D500031503132352854503135322900000000AD
:104D60005650485F5057522854503137342900006C
:104D7000565245475F4C31325F31503135285450DF
:104D800037342900565245475F4C345F3350312841
:104D900054503535290000004455545F494D505F4B
:104DA000494E2854503138352900000056524547A5
:104DB0005F53325F31503237352854503134372900
:104DC00000000000565245465F4C50444452322881
:104DD0005450313537290000565245475F53315FF3
:104DE0003150313235285450353729005652454715
:104DF0005F4C385F31503828545031313829000029
:104E00004455545F494D505F494E5F564255535F7C
:104E1000355628545031383829000000565245473D
:104E20005F4C325F315038285450313439290000FA
:104E30005644445F33563328545035392900000016
:104E4000565245475F4C31305F3150300000000012
:104E5000565245475F4C355F33503000415644440D
:104E60003131000044564444313100005652454728
:104E70005F4C365F55494D310000000056524547A2
:104E80005F574C414E5F3350330000005652454748
:104E90005F4C315F315032350000000056524547BB
:104EA0005F4C31335F325038350000005652454771
:104EB0005F4C31345F325037000000005652454796
:104EC0005F4C335F31503800565245475F4C375F77
:104ED000315038005644445F3156380056424154F0
:104EE00054000000044F0008000000209C00000057
:104EF00090290008A04F00089C000020BC0700007B
:104F0000A0290008000000000000000000000000D0
:104F10000000000010000000010000000024F40068
:104F2000004E0008984D00082C4D0008184D000850
:104F3000604D00081C4E0008844D0008EC4D000830
:104F4000004D0008D84C0008704D0008D84D0008EE
:104F5000AC4D0008484D0008EC4C0008C44D00085A
:104F6000304E0008D44E0008504E00086C4E000829
:104F7000C84E0008404E0008AC4E00087C4E0008A9
:104F80009C4E0008DC4E00088C4E0008BC4E000809
:104F9000644E00085C4E00080000000000000000A5
:04000005080001C529
:00000001FF
